{
  "contractName": "ShareCrowdsale",
  "abi": [
    {
      "constant": false,
      "inputs": [
        {
          "name": "_phase",
          "type": "uint256"
        }
      ],
      "name": "startIcoPhase",
      "outputs": [],
      "payable": false,
      "stateMutability": "nonpayable",
      "type": "function"
    },
    {
      "constant": true,
      "inputs": [
        {
          "name": "",
          "type": "uint256"
        }
      ],
      "name": "icoStages",
      "outputs": [
        {
          "name": "tokensPrice",
          "type": "uint256"
        },
        {
          "name": "tokensDistribution",
          "type": "uint256"
        },
        {
          "name": "discount",
          "type": "uint256"
        },
        {
          "name": "isActive",
          "type": "bool"
        }
      ],
      "payable": false,
      "stateMutability": "view",
      "type": "function"
    },
    {
      "constant": true,
      "inputs": [],
      "name": "ICO_FINISH",
      "outputs": [
        {
          "name": "",
          "type": "uint256"
        }
      ],
      "payable": false,
      "stateMutability": "view",
      "type": "function"
    },
    {
      "constant": true,
      "inputs": [],
      "name": "distributionAddress",
      "outputs": [
        {
          "name": "",
          "type": "address"
        }
      ],
      "payable": false,
      "stateMutability": "view",
      "type": "function"
    },
    {
      "constant": true,
      "inputs": [],
      "name": "tokensSold",
      "outputs": [
        {
          "name": "",
          "type": "uint256"
        }
      ],
      "payable": false,
      "stateMutability": "view",
      "type": "function"
    },
    {
      "constant": false,
      "inputs": [
        {
          "name": "_address",
          "type": "address"
        },
        {
          "name": "_value",
          "type": "uint256"
        }
      ],
      "name": "sendCrowdsaleTokensManually",
      "outputs": [],
      "payable": false,
      "stateMutability": "nonpayable",
      "type": "function"
    },
    {
      "constant": true,
      "inputs": [
        {
          "name": "",
          "type": "uint256"
        }
      ],
      "name": "preIcoStages",
      "outputs": [
        {
          "name": "tokensPrice",
          "type": "uint256"
        },
        {
          "name": "tokensDistribution",
          "type": "uint256"
        },
        {
          "name": "discount",
          "type": "uint256"
        },
        {
          "name": "isActive",
          "type": "bool"
        }
      ],
      "payable": false,
      "stateMutability": "view",
      "type": "function"
    },
    {
      "constant": false,
      "inputs": [
        {
          "name": "_phase",
          "type": "uint256"
        }
      ],
      "name": "stopIcoPhase",
      "outputs": [],
      "payable": false,
      "stateMutability": "nonpayable",
      "type": "function"
    },
    {
      "constant": false,
      "inputs": [],
      "name": "acceptOwnership",
      "outputs": [],
      "payable": false,
      "stateMutability": "nonpayable",
      "type": "function"
    },
    {
      "constant": true,
      "inputs": [],
      "name": "tokenPrice",
      "outputs": [
        {
          "name": "",
          "type": "uint256"
        }
      ],
      "payable": false,
      "stateMutability": "view",
      "type": "function"
    },
    {
      "constant": false,
      "inputs": [
        {
          "name": "_phase",
          "type": "uint256"
        },
        {
          "name": "_tokenPrice",
          "type": "uint256"
        }
      ],
      "name": "changePreIcoStageTokenPrice",
      "outputs": [],
      "payable": false,
      "stateMutability": "nonpayable",
      "type": "function"
    },
    {
      "constant": false,
      "inputs": [
        {
          "name": "_phase",
          "type": "uint256"
        }
      ],
      "name": "startPreIcoPhase",
      "outputs": [],
      "payable": false,
      "stateMutability": "nonpayable",
      "type": "function"
    },
    {
      "constant": true,
      "inputs": [],
      "name": "owner",
      "outputs": [
        {
          "name": "",
          "type": "address"
        }
      ],
      "payable": false,
      "stateMutability": "view",
      "type": "function"
    },
    {
      "constant": true,
      "inputs": [],
      "name": "PRE_ICO_MAX_CAP",
      "outputs": [
        {
          "name": "",
          "type": "uint256"
        }
      ],
      "payable": false,
      "stateMutability": "view",
      "type": "function"
    },
    {
      "constant": false,
      "inputs": [
        {
          "name": "_phase",
          "type": "uint256"
        },
        {
          "name": "_tokenPrice",
          "type": "uint256"
        }
      ],
      "name": "changeIcoStageTokenPrice",
      "outputs": [],
      "payable": false,
      "stateMutability": "nonpayable",
      "type": "function"
    },
    {
      "constant": true,
      "inputs": [],
      "name": "PRE_ICO_FINISH",
      "outputs": [
        {
          "name": "",
          "type": "uint256"
        }
      ],
      "payable": false,
      "stateMutability": "view",
      "type": "function"
    },
    {
      "constant": false,
      "inputs": [],
      "name": "sendEtherManually",
      "outputs": [],
      "payable": false,
      "stateMutability": "nonpayable",
      "type": "function"
    },
    {
      "constant": true,
      "inputs": [],
      "name": "isPreIco",
      "outputs": [
        {
          "name": "",
          "type": "bool"
        }
      ],
      "payable": false,
      "stateMutability": "view",
      "type": "function"
    },
    {
      "constant": true,
      "inputs": [],
      "name": "ethCollected",
      "outputs": [
        {
          "name": "",
          "type": "uint256"
        }
      ],
      "payable": false,
      "stateMutability": "view",
      "type": "function"
    },
    {
      "constant": true,
      "inputs": [],
      "name": "ICO_START",
      "outputs": [
        {
          "name": "",
          "type": "uint256"
        }
      ],
      "payable": false,
      "stateMutability": "view",
      "type": "function"
    },
    {
      "constant": true,
      "inputs": [],
      "name": "PRE_ICO_START",
      "outputs": [
        {
          "name": "",
          "type": "uint256"
        }
      ],
      "payable": false,
      "stateMutability": "view",
      "type": "function"
    },
    {
      "constant": true,
      "inputs": [],
      "name": "newOwner",
      "outputs": [
        {
          "name": "",
          "type": "address"
        }
      ],
      "payable": false,
      "stateMutability": "view",
      "type": "function"
    },
    {
      "constant": true,
      "inputs": [],
      "name": "MIN_DEPOSIT",
      "outputs": [
        {
          "name": "",
          "type": "uint256"
        }
      ],
      "payable": false,
      "stateMutability": "view",
      "type": "function"
    },
    {
      "constant": true,
      "inputs": [],
      "name": "getCurrentStage",
      "outputs": [
        {
          "name": "",
          "type": "uint256"
        }
      ],
      "payable": false,
      "stateMutability": "view",
      "type": "function"
    },
    {
      "constant": false,
      "inputs": [
        {
          "name": "_newOwner",
          "type": "address"
        }
      ],
      "name": "transferOwnership",
      "outputs": [],
      "payable": false,
      "stateMutability": "nonpayable",
      "type": "function"
    },
    {
      "constant": false,
      "inputs": [
        {
          "name": "_phase",
          "type": "uint256"
        }
      ],
      "name": "stopPreIcoPhase",
      "outputs": [],
      "payable": false,
      "stateMutability": "nonpayable",
      "type": "function"
    },
    {
      "constant": true,
      "inputs": [],
      "name": "token",
      "outputs": [
        {
          "name": "",
          "type": "address"
        }
      ],
      "payable": false,
      "stateMutability": "view",
      "type": "function"
    },
    {
      "constant": true,
      "inputs": [],
      "name": "isIco",
      "outputs": [
        {
          "name": "",
          "type": "bool"
        }
      ],
      "payable": false,
      "stateMutability": "view",
      "type": "function"
    },
    {
      "inputs": [
        {
          "name": "_tokenAddress",
          "type": "address"
        },
        {
          "name": "_distribution",
          "type": "address"
        }
      ],
      "payable": false,
      "stateMutability": "nonpayable",
      "type": "constructor"
    },
    {
      "payable": true,
      "stateMutability": "payable",
      "type": "fallback"
    }
  ],
  "bytecode": "0x60606040526002805561067260045534156200001a57600080fd5b604051604080620021e88339810160405280805190602001909190805190602001909190505081600360006101000a81548173ffffffffffffffffffffffffffffffffffffffff021916908373ffffffffffffffffffffffffffffffffffffffff160217905550336000806101000a81548173ffffffffffffffffffffffffffffffffffffffff021916908373ffffffffffffffffffffffffffffffffffffffff16021790555080600560006101000a81548173ffffffffffffffffffffffffffffffffffffffff021916908373ffffffffffffffffffffffffffffffffffffffff16021790555062000120620001f66401000000000262001532176401000000009004565b600360009054906101000a900473ffffffffffffffffffffffffffffffffffffffff1673ffffffffffffffffffffffffffffffffffffffff16636596cff3306040518263ffffffff167c0100000000000000000000000000000000000000000000000000000000028152600401808273ffffffffffffffffffffffffffffffffffffffff1673ffffffffffffffffffffffffffffffffffffffff168152602001915050600060405180830381600087803b1515620001dd57600080fd5b5af11515620001eb57600080fd5b505050505062000743565b600880548060010182816200020c9190620006c0565b916000526020600020906004020160006080604051908101604052806106728152602001630ee6b2808152602001612710815260200160011515815250909190915060008201518160000155602082015181600101556040820151816002015560608201518160030160006101000a81548160ff02191690831515021790555050505060088054806001018281620002a59190620006c0565b916000526020600020906004020160006080604051908101604052806106728152602001631dcd65008152602001611388815260200160011515815250909190915060008201518160000155602082015181600101556040820151816002015560608201518160030160006101000a81548160ff021916908315150217905550505050600880548060010182816200033e9190620006c0565b916000526020600020906004020160006080604051908101604052806106728152602001632faf08008152602001610dac815260200160011515815250909190915060008201518160000155602082015181600101556040820151816002015560608201518160030160006101000a81548160ff02191690831515021790555050505060098054806001018281620003d79190620006c0565b916000526020600020906004020160006080604051908101604052806106728152602001633b9aca0081526020016109c4815260200160011515815250909190915060008201518160000155602082015181600101556040820151816002015560608201518160030160006101000a81548160ff02191690831515021790555050505060098054806001018281620004709190620006c0565b9160005260206000209060040201600060806040519081016040528061067281526020016359682f008152602001610708815260200160011515815250909190915060008201518160000155602082015181600101556040820151816002015560608201518160030160006101000a81548160ff02191690831515021790555050505060098054806001018281620005099190620006c0565b9160005260206000209060040201600060806040519081016040528061067281526020016359682f0081526020016104b0815260200160011515815250909190915060008201518160000155602082015181600101556040820151816002015560608201518160030160006101000a81548160ff02191690831515021790555050505060098054806001018281620005a29190620006c0565b9160005260206000209060040201600060806040519081016040528061067281526020016359682f008152602001610258815260200160011515815250909190915060008201518160000155602082015181600101556040820151816002015560608201518160030160006101000a81548160ff021916908315150217905550505050600980548060010182816200063b9190620006c0565b9160005260206000209060040201600060806040519081016040528061067281526020016401270b018081526020016000815260200160011515815250909190915060008201518160000155602082015181600101556040820151816002015560608201518160030160006101000a81548160ff021916908315150217905550505050565b815481835581811511620006f057600402816004028360005260206000209182019101620006ef9190620006f5565b5b505050565b6200074091905b808211156200073c57600080820160009055600182016000905560028201600090556003820160006101000a81549060ff021916905550600401620006fc565b5090565b90565b611a9580620007536000396000f30060606040526004361061016a576000357c0100000000000000000000000000000000000000000000000000000000900463ffffffff1680631c3a3f11146101b9578063228e892e146101dc5780632ce0b4f61461022c57806337fb7e2114610255578063518ab2a8146102aa5780636b78311a146102d35780637402c2b81461031557806374f81dc61461036557806379ba5097146103885780637ff9b5961461039d57806383c481c8146103c65780638a574c1a146103f25780638da5cb5b14610415578063993d13bd1461046a578063a4cb0a7a14610493578063a6024524146104bf578063ae1dd78c146104e8578063bec17f69146104fd578063bee2e1341461052a578063d0ca12ba14610553578063d4810b611461057c578063d4ee1d90146105a5578063e1e158a5146105fa578063eedbe31d14610623578063f2fde38b1461064c578063fad1106b14610685578063fc0c546a146106a8578063ff3a5eea146106fd575b61017261072a565b806101815750610180610757565b5b151561018c57600080fd5b662386f26fc1000034101515156101a257600080fd5b6101ac3334610787565b15156101b757600080fd5b005b34156101c457600080fd5b6101da6004808035906020019091905050610aa1565b005b34156101e757600080fd5b6101fd6004808035906020019091905050610b38565b604051808581526020018481526020018381526020018215151515815260200194505050505060405180910390f35b341561023757600080fd5b61023f610b84565b6040518082815260200191505060405180910390f35b341561026057600080fd5b610268610b8c565b604051808273ffffffffffffffffffffffffffffffffffffffff1673ffffffffffffffffffffffffffffffffffffffff16815260200191505060405180910390f35b34156102b557600080fd5b6102bd610bb2565b6040518082815260200191505060405180910390f35b34156102de57600080fd5b610313600480803573ffffffffffffffffffffffffffffffffffffffff16906020019091908035906020019091905050610bb8565b005b341561032057600080fd5b6103366004808035906020019091905050610d06565b604051808581526020018481526020018381526020018215151515815260200194505050505060405180910390f35b341561037057600080fd5b6103866004808035906020019091905050610d52565b005b341561039357600080fd5b61039b610de9565b005b34156103a857600080fd5b6103b0610ea4565b6040518082815260200191505060405180910390f35b34156103d157600080fd5b6103f06004808035906020019091908035906020019091905050610eaa565b005b34156103fd57600080fd5b6104136004808035906020019091905050610f2e565b005b341561042057600080fd5b610428610fc5565b604051808273ffffffffffffffffffffffffffffffffffffffff1673ffffffffffffffffffffffffffffffffffffffff16815260200191505060405180910390f35b341561047557600080fd5b61047d610fea565b6040518082815260200191505060405180910390f35b341561049e57600080fd5b6104bd6004808035906020019091908035906020019091905050610ff8565b005b34156104ca57600080fd5b6104d261107c565b6040518082815260200191505060405180910390f35b34156104f357600080fd5b6104fb611084565b005b341561050857600080fd5b61051061072a565b604051808215151515815260200191505060405180910390f35b341561053557600080fd5b61053d61115a565b6040518082815260200191505060405180910390f35b341561055e57600080fd5b610566611160565b6040518082815260200191505060405180910390f35b341561058757600080fd5b61058f611168565b6040518082815260200191505060405180910390f35b34156105b057600080fd5b6105b861116d565b604051808273ffffffffffffffffffffffffffffffffffffffff1673ffffffffffffffffffffffffffffffffffffffff16815260200191505060405180910390f35b341561060557600080fd5b61060d611193565b6040518082815260200191505060405180910390f35b341561062e57600080fd5b61063661119e565b6040518082815260200191505060405180910390f35b341561065757600080fd5b610683600480803573ffffffffffffffffffffffffffffffffffffffff16906020019091905050611305565b005b341561069057600080fd5b6106a660048080359060200190919050506113e0565b005b34156106b357600080fd5b6106bb611477565b604051808273ffffffffffffffffffffffffffffffffffffffff1673ffffffffffffffffffffffffffffffffffffffff16815260200191505060405180910390f35b341561070857600080fd5b610710610757565b604051808215151515815260200191505060405180910390f35b6000426000111580156107415750635ca2a5c44211155b1561074f5760019050610754565b600090505b90565b600042635cf1c03c111580156107715750635ed596444211155b1561077f5760019050610784565b600090505b90565b600080600080600080610798610757565b94506107a261119e565b935060648414156107b65760009550610a96565b84151561086d576008848154811015156107cc57fe5b90600052602060002090600402016000015492506108326127106108196008878154811015156107f857fe5b9060005260206000209060040201600201548661149d90919063ffffffff16565b81151561082257fe5b04846114e390919063ffffffff16565b91506108496010600a61150190919063ffffffff16565b61085c838961149d90919063ffffffff16565b81151561086557fe5b049050610919565b60098481548110151561087c57fe5b90600052602060002090600402016000015492506108e26127106108c96009878154811015156108a857fe5b9060005260206000209060040201600201548661149d90919063ffffffff16565b8115156108d257fe5b04846114e390919063ffffffff16565b91506108f96010600a61150190919063ffffffff16565b61090c838961149d90919063ffffffff16565b81151561091557fe5b0490505b600360009054906101000a900473ffffffffffffffffffffffffffffffffffffffff1673ffffffffffffffffffffffffffffffffffffffff16639c1f020a89836040518363ffffffff167c0100000000000000000000000000000000000000000000000000000000028152600401808373ffffffffffffffffffffffffffffffffffffffff1673ffffffffffffffffffffffffffffffffffffffff16815260200182815260200192505050600060405180830381600087803b15156109dd57600080fd5b5af115156109ea57600080fd5b505050610a02816006546114e390919063ffffffff16565b60068190555086600760008282540192505081905550600560009054906101000a900473ffffffffffffffffffffffffffffffffffffffff1673ffffffffffffffffffffffffffffffffffffffff166108fc3073ffffffffffffffffffffffffffffffffffffffff16319081150290604051600060405180830381858888f193505050501515610a9157600080fd5b600195505b505050505092915050565b6000809054906101000a900473ffffffffffffffffffffffffffffffffffffffff1673ffffffffffffffffffffffffffffffffffffffff163373ffffffffffffffffffffffffffffffffffffffff16141515610afc57600080fd5b6001600982815481101515610b0d57fe5b906000526020600020906004020160030160006101000a81548160ff02191690831515021790555050565b600981815481101515610b4757fe5b90600052602060002090600402016000915090508060000154908060010154908060020154908060030160009054906101000a900460ff16905084565b635ed5964481565b600560009054906101000a900473ffffffffffffffffffffffffffffffffffffffff1681565b60065481565b6000809054906101000a900473ffffffffffffffffffffffffffffffffffffffff1673ffffffffffffffffffffffffffffffffffffffff163373ffffffffffffffffffffffffffffffffffffffff16141515610c1357600080fd5b600360009054906101000a900473ffffffffffffffffffffffffffffffffffffffff1673ffffffffffffffffffffffffffffffffffffffff16639c1f020a83836040518363ffffffff167c0100000000000000000000000000000000000000000000000000000000028152600401808373ffffffffffffffffffffffffffffffffffffffff1673ffffffffffffffffffffffffffffffffffffffff16815260200182815260200192505050600060405180830381600087803b1515610cd757600080fd5b5af11515610ce457600080fd5b505050610cfc816006546114e390919063ffffffff16565b6006819055505050565b600881815481101515610d1557fe5b90600052602060002090600402016000915090508060000154908060010154908060020154908060030160009054906101000a900460ff16905084565b6000809054906101000a900473ffffffffffffffffffffffffffffffffffffffff1673ffffffffffffffffffffffffffffffffffffffff163373ffffffffffffffffffffffffffffffffffffffff16141515610dad57600080fd5b6000600982815481101515610dbe57fe5b906000526020600020906004020160030160006101000a81548160ff02191690831515021790555050565b600160009054906101000a900473ffffffffffffffffffffffffffffffffffffffff1673ffffffffffffffffffffffffffffffffffffffff163373ffffffffffffffffffffffffffffffffffffffff161415610ea257600160009054906101000a900473ffffffffffffffffffffffffffffffffffffffff166000806101000a81548173ffffffffffffffffffffffffffffffffffffffff021916908373ffffffffffffffffffffffffffffffffffffffff1602179055505b565b60045481565b6000809054906101000a900473ffffffffffffffffffffffffffffffffffffffff1673ffffffffffffffffffffffffffffffffffffffff163373ffffffffffffffffffffffffffffffffffffffff16141515610f0557600080fd5b80600883815481101515610f1557fe5b9060005260206000209060040201600001819055505050565b6000809054906101000a900473ffffffffffffffffffffffffffffffffffffffff1673ffffffffffffffffffffffffffffffffffffffff163373ffffffffffffffffffffffffffffffffffffffff16141515610f8957600080fd5b6001600882815481101515610f9a57fe5b906000526020600020906004020160030160006101000a81548160ff02191690831515021790555050565b6000809054906101000a900473ffffffffffffffffffffffffffffffffffffffff1681565b69014542ba12a337c0000081565b6000809054906101000a900473ffffffffffffffffffffffffffffffffffffffff1673ffffffffffffffffffffffffffffffffffffffff163373ffffffffffffffffffffffffffffffffffffffff1614151561105357600080fd5b8060098381548110151561106357fe5b9060005260206000209060040201600001819055505050565b635ca2a5c481565b6000809054906101000a900473ffffffffffffffffffffffffffffffffffffffff1673ffffffffffffffffffffffffffffffffffffffff163373ffffffffffffffffffffffffffffffffffffffff161415156110df57600080fd5b600560009054906101000a900473ffffffffffffffffffffffffffffffffffffffff1673ffffffffffffffffffffffffffffffffffffffff166108fc3073ffffffffffffffffffffffffffffffffffffffff16319081150290604051600060405180830381858888f19350505050151561115857600080fd5b565b60075481565b635cf1c03c81565b600081565b600160009054906101000a900473ffffffffffffffffffffffffffffffffffffffff1681565b662386f26fc1000081565b60008060006111ab61072a565b806111ba57506111b9610757565b5b15156111c557600080fd5b6111cd61072a565b1561126057600090505b60088054905081101561125f576008818154811015156111f357fe5b906000526020600020906004020160010154820191508160065411158015611245575060088181548110151561122557fe5b906000526020600020906004020160030160009054906101000a900460ff165b1561125257809250611300565b80806001019150506111d7565b5b611268610757565b156112fb57600090505b6009805490508110156112fa5760098181548110151561128e57fe5b9060005260206000209060040201600101548201915081600654111580156112e057506008818154811015156112c057fe5b906000526020600020906004020160030160009054906101000a900460ff165b156112ed57809250611300565b8080600101915050611272565b5b606492505b505090565b6000809054906101000a900473ffffffffffffffffffffffffffffffffffffffff1673ffffffffffffffffffffffffffffffffffffffff163373ffffffffffffffffffffffffffffffffffffffff1614151561136057600080fd5b600073ffffffffffffffffffffffffffffffffffffffff168173ffffffffffffffffffffffffffffffffffffffff161415151561139c57600080fd5b80600160006101000a81548173ffffffffffffffffffffffffffffffffffffffff021916908373ffffffffffffffffffffffffffffffffffffffff16021790555050565b6000809054906101000a900473ffffffffffffffffffffffffffffffffffffffff1673ffffffffffffffffffffffffffffffffffffffff163373ffffffffffffffffffffffffffffffffffffffff1614151561143b57600080fd5b600060088281548110151561144c57fe5b906000526020600020906004020160030160006101000a81548160ff02191690831515021790555050565b600360009054906101000a900473ffffffffffffffffffffffffffffffffffffffff1681565b60008060008414806114af5750600083145b156114bd57600091506114dc565b82840290508284828115156114ce57fe5b041415156114d857fe5b8091505b5092915050565b60008082840190508381101515156114f757fe5b8091505092915050565b6000806000831415611516576001915061152b565b82840a905083811015151561152757fe5b8091505b5092915050565b6008805480600101828161154691906119ec565b916000526020600020906004020160006080604051908101604052806106728152602001630ee6b2808152602001612710815260200160011515815250909190915060008201518160000155602082015181600101556040820151816002015560608201518160030160006101000a81548160ff021916908315150217905550505050600880548060010182816115dd91906119ec565b916000526020600020906004020160006080604051908101604052806106728152602001631dcd65008152602001611388815260200160011515815250909190915060008201518160000155602082015181600101556040820151816002015560608201518160030160006101000a81548160ff0219169083151502179055505050506008805480600101828161167491906119ec565b916000526020600020906004020160006080604051908101604052806106728152602001632faf08008152602001610dac815260200160011515815250909190915060008201518160000155602082015181600101556040820151816002015560608201518160030160006101000a81548160ff0219169083151502179055505050506009805480600101828161170b91906119ec565b916000526020600020906004020160006080604051908101604052806106728152602001633b9aca0081526020016109c4815260200160011515815250909190915060008201518160000155602082015181600101556040820151816002015560608201518160030160006101000a81548160ff021916908315150217905550505050600980548060010182816117a291906119ec565b9160005260206000209060040201600060806040519081016040528061067281526020016359682f008152602001610708815260200160011515815250909190915060008201518160000155602082015181600101556040820151816002015560608201518160030160006101000a81548160ff0219169083151502179055505050506009805480600101828161183991906119ec565b9160005260206000209060040201600060806040519081016040528061067281526020016359682f0081526020016104b0815260200160011515815250909190915060008201518160000155602082015181600101556040820151816002015560608201518160030160006101000a81548160ff021916908315150217905550505050600980548060010182816118d091906119ec565b9160005260206000209060040201600060806040519081016040528061067281526020016359682f008152602001610258815260200160011515815250909190915060008201518160000155602082015181600101556040820151816002015560608201518160030160006101000a81548160ff0219169083151502179055505050506009805480600101828161196791906119ec565b9160005260206000209060040201600060806040519081016040528061067281526020016401270b018081526020016000815260200160011515815250909190915060008201518160000155602082015181600101556040820151816002015560608201518160030160006101000a81548160ff021916908315150217905550505050565b815481835581811511611a1957600402816004028360005260206000209182019101611a189190611a1e565b5b505050565b611a6691905b80821115611a6257600080820160009055600182016000905560028201600090556003820160006101000a81549060ff021916905550600401611a24565b5090565b905600a165627a7a72305820865a3ef1e0fae2a3f33142a82ece2148833a5f5573a01a65dabe013af1943bb50029",
  "source": "pragma solidity ^0.4.20;\n\n//standard library for uint\nlibrary SafeMath { \n  function mul(uint256 a, uint256 b) internal pure returns (uint256) {\n    if (a == 0 || b == 0){\n        return 0;\n    }\n    uint256 c = a * b;\n    assert(c / a == b);\n    return c;\n  }\n\n  function sub(uint256 a, uint256 b) internal pure returns (uint256) {\n    assert(b <= a);\n    return a - b;\n  }\n\n  function add(uint256 a, uint256 b) internal pure returns (uint256) {\n    uint256 c = a + b;\n    assert(c >= a);\n    return c;\n  }\n\n  function pow(uint256 a, uint256 b) internal pure returns (uint256){ //power function\n    if (b == 0){\n      return 1;\n    }\n    uint256 c = a**b;\n    assert (c >= a);\n    return c;\n  }\n}\n\n//standard contract to identify owner\ncontract Ownable {\n\n  address public owner;\n\n  address public newOwner;\n\n  modifier onlyOwner() {\n    require(msg.sender == owner);\n    _;\n  }\n  \n  function transferOwnership(address _newOwner) public onlyOwner {\n    require(_newOwner != address(0));\n    newOwner = _newOwner;\n  }\n\n  function acceptOwnership() public {\n    if (msg.sender == newOwner) {\n      owner = newOwner;\n    }\n  }\n}\n//Abstract Token contract\ncontract SHAREToken{\n  function setCrowdsaleContract (address) public;\n  function sendCrowdsaleTokens(address, uint256)  public;\n}\n\n//Crowdsale contract\ncontract ShareCrowdsale is Ownable{\n\n  using SafeMath for uint;\n\n  uint decimals = 2;\n\n  // Token contract address\n  SHAREToken public token;\n\n  uint public tokenPrice = 1650; // 1ETH = 1650 Tokens\n\n  address public distributionAddress;\n\n  // Constructor\n  function ShareCrowdsale(address _tokenAddress, address _distribution) public {\n    token = SHAREToken(_tokenAddress);\n    owner = msg.sender;\n\n    distributionAddress = _distribution;\n\n    setupStages();\n\n    token.setCrowdsaleContract(this);    \n  }\n\n  uint public constant PRE_ICO_START = 0;//1522540860; //04/01/2018 12:01:00 AM GMT\n  uint public constant PRE_ICO_FINISH = 1554163140; //04/01/2019 11:59:00 PM GMT\n\n  uint public constant PRE_ICO_MAX_CAP = 6000 ether;\n\n  uint public constant ICO_START = 1559347260; //06/01/2019 12:01:00 AM GMT\n  uint public constant ICO_FINISH = 1591055940; //06/01/2020 11:59:00 PM GMT\n\n  uint public tokensSold;\n  uint public ethCollected;\n\n  uint public constant MIN_DEPOSIT = 0.01 ether;\n\n  struct Stage {\n    uint tokensPrice;\n    uint tokensDistribution;\n    uint discount;\n    bool isActive;\n  }\n  \n  Stage[] public preIcoStages;\n  Stage[] public icoStages;\n\n  function setupStages () internal {\n    preIcoStages.push(Stage(1650,250000000, 10000, true));\n    preIcoStages.push(Stage(1650,500000000, 5000, true));\n    preIcoStages.push(Stage(1650,800000000, 3500, true));\n\n    icoStages.push(Stage(1650,1000000000, 2500, true));\n    icoStages.push(Stage(1650,1500000000, 1800, true));\n    icoStages.push(Stage(1650,1500000000, 1200, true));\n    icoStages.push(Stage(1650,1500000000, 600, true));\n    icoStages.push(Stage(1650,4950000000, 0, true)); \n  }\n  \n  function stopPreIcoPhase (uint _phase) external onlyOwner {\n    preIcoStages[_phase].isActive = false;\n  }\n\n  function stopIcoPhase (uint _phase) external onlyOwner {\n    icoStages[_phase].isActive = false;\n  }\n\n  function startPreIcoPhase (uint _phase) external onlyOwner {\n    preIcoStages[_phase].isActive = true;\n  }\n\n  function startIcoPhase (uint _phase) external onlyOwner {\n    icoStages[_phase].isActive = true;\n  }\n\n  function changePreIcoStageTokenPrice (uint _phase, uint _tokenPrice) external onlyOwner {\n    preIcoStages[_phase].tokensPrice = _tokenPrice;\n  }\n  \n  function changeIcoStageTokenPrice (uint _phase, uint _tokenPrice) external onlyOwner {\n    icoStages[_phase].tokensPrice = _tokenPrice;\n  }\n  \n  function () public payable {\n    require (isPreIco() || isIco());\n    require (msg.value >= MIN_DEPOSIT);\n    require (buy(msg.sender, msg.value));\n  }\n\n  function buy (address _address, uint _value) internal returns(bool) {\n    bool isIcoNow = isIco();\n    uint currentStage = getCurrentStage();\n    if (currentStage == 100){\n      return false;\n    }\n    \n    // uint tokensToSend = _value.mul(tokenPrice)/(uint(10).pow(uint(14))); //decimals difference\n    if (!isIcoNow){\n      uint _phasePrice = preIcoStages[currentStage].tokensPrice;\n      uint _tokenPrice = _phasePrice.add(_phasePrice.mul(preIcoStages[currentStage].discount)/10000);\n      uint tokensToSend = _value.mul(_tokenPrice)/(uint(10).pow(uint(16))); //decimals difference\n    //   tokensToSend = tokensToSend.add(tokensToSend.mul(preIcoStages[currentStage].bonus)/100);\n    }else{\n    //   tokensToSend = tokensToSend.add(tokensToSend.mul(icoStages[currentStage].bonus)/100);\n      _phasePrice = icoStages[currentStage].tokensPrice;\n      _tokenPrice = _phasePrice.add(_phasePrice.mul(icoStages[currentStage].discount)/10000);\n      tokensToSend = _value.mul(_tokenPrice)/(uint(10).pow(uint(16))); //decimals difference\n    }\n\n    token.sendCrowdsaleTokens(_address,tokensToSend);\n    \n    tokensSold = tokensSold.add(tokensToSend);\n    ethCollected += _value;\n    distributionAddress.transfer(address(this).balance);\n    return true;\n  }\n\n  function getCurrentStage () public view returns(uint) {\n    require (isPreIco() || isIco());\n    uint buffer;\n\n    if(isPreIco()){\n      for (uint i = 0; i < preIcoStages.length; i++){\n        buffer += preIcoStages[i].tokensDistribution;\n        if(tokensSold <= buffer && preIcoStages[i].isActive){\n          return i;\n        }\n      }\n    }\n\n    if(isIco()){\n      for (i = 0; i < icoStages.length; i++){\n        buffer += icoStages[i].tokensDistribution;\n        if(tokensSold <= buffer && preIcoStages[i].isActive){\n          return i;\n        }\n      }\n    }\n    return 100; //something went wrong\n  }\n\n  function isPreIco () public view returns(bool) {\n    if(PRE_ICO_START <= now && now <= PRE_ICO_FINISH){\n      return true;\n    }\n    return false;\n  }\n\n  function  isIco() public view returns(bool) {\n    if(ICO_START <= now && now <= ICO_FINISH){\n      return true;\n    }\n    return false;\n  }\n\n  function sendCrowdsaleTokensManually (address _address, uint _value) external onlyOwner {\n    token.sendCrowdsaleTokens(_address,_value);\n    tokensSold = tokensSold.add(_value);\n  }\n\n  //if something went wrong\n  function sendEtherManually () public onlyOwner {\n    distributionAddress.transfer(address(this).balance);\n  }\n}\n",
  "sourcePath": "/home/romuch/Desktop/SHARE/contracts/ShareCrowdsaleAll.sol",
  "compiler": {
    "name": "solc",
    "version": "0.4.21+commit.dfe3193c.Emscripten.clang"
  },
  "schemaVersion": "1.0.1",
  "updatedAt": "2018-04-26T09:36:27.118Z"
}