{
  "contractName": "ShareCrowdsale",
  "abi": [
    {
      "constant": true,
      "inputs": [],
      "name": "PRE_ICO_MIN_CAP",
      "outputs": [
        {
          "name": "",
          "type": "uint256"
        }
      ],
      "payable": false,
      "stateMutability": "view",
      "type": "function"
    },
    {
      "constant": false,
      "inputs": [
        {
          "name": "_phase",
          "type": "uint256"
        }
      ],
      "name": "startIcoPhase",
      "outputs": [],
      "payable": false,
      "stateMutability": "nonpayable",
      "type": "function"
    },
    {
      "constant": true,
      "inputs": [
        {
          "name": "",
          "type": "uint256"
        }
      ],
      "name": "icoStages",
      "outputs": [
        {
          "name": "tokensPrice",
          "type": "uint256"
        },
        {
          "name": "tokensDistribution",
          "type": "uint256"
        },
        {
          "name": "discount",
          "type": "uint256"
        },
        {
          "name": "isActive",
          "type": "bool"
        }
      ],
      "payable": false,
      "stateMutability": "view",
      "type": "function"
    },
    {
      "constant": true,
      "inputs": [],
      "name": "ICO_FINISH",
      "outputs": [
        {
          "name": "",
          "type": "uint256"
        }
      ],
      "payable": false,
      "stateMutability": "view",
      "type": "function"
    },
    {
      "constant": true,
      "inputs": [],
      "name": "ICO_MIN_CAP",
      "outputs": [
        {
          "name": "",
          "type": "uint256"
        }
      ],
      "payable": false,
      "stateMutability": "view",
      "type": "function"
    },
    {
      "constant": true,
      "inputs": [],
      "name": "distributionAddress",
      "outputs": [
        {
          "name": "",
          "type": "address"
        }
      ],
      "payable": false,
      "stateMutability": "view",
      "type": "function"
    },
    {
      "constant": true,
      "inputs": [],
      "name": "tokensSold",
      "outputs": [
        {
          "name": "",
          "type": "uint256"
        }
      ],
      "payable": false,
      "stateMutability": "view",
      "type": "function"
    },
    {
      "constant": false,
      "inputs": [
        {
          "name": "_address",
          "type": "address"
        },
        {
          "name": "_value",
          "type": "uint256"
        }
      ],
      "name": "sendCrowdsaleTokensManually",
      "outputs": [],
      "payable": false,
      "stateMutability": "nonpayable",
      "type": "function"
    },
    {
      "constant": true,
      "inputs": [
        {
          "name": "",
          "type": "uint256"
        }
      ],
      "name": "preIcoStages",
      "outputs": [
        {
          "name": "tokensPrice",
          "type": "uint256"
        },
        {
          "name": "tokensDistribution",
          "type": "uint256"
        },
        {
          "name": "discount",
          "type": "uint256"
        },
        {
          "name": "isActive",
          "type": "bool"
        }
      ],
      "payable": false,
      "stateMutability": "view",
      "type": "function"
    },
    {
      "constant": false,
      "inputs": [
        {
          "name": "_phase",
          "type": "uint256"
        }
      ],
      "name": "stopIcoPhase",
      "outputs": [],
      "payable": false,
      "stateMutability": "nonpayable",
      "type": "function"
    },
    {
      "constant": false,
      "inputs": [],
      "name": "acceptOwnership",
      "outputs": [],
      "payable": false,
      "stateMutability": "nonpayable",
      "type": "function"
    },
    {
      "constant": true,
      "inputs": [],
      "name": "tokenPrice",
      "outputs": [
        {
          "name": "",
          "type": "uint256"
        }
      ],
      "payable": false,
      "stateMutability": "view",
      "type": "function"
    },
    {
      "constant": false,
      "inputs": [
        {
          "name": "_phase",
          "type": "uint256"
        },
        {
          "name": "_tokenPrice",
          "type": "uint256"
        }
      ],
      "name": "changePreIcoStageTokenPrice",
      "outputs": [],
      "payable": false,
      "stateMutability": "nonpayable",
      "type": "function"
    },
    {
      "constant": false,
      "inputs": [
        {
          "name": "_phase",
          "type": "uint256"
        }
      ],
      "name": "startPreIcoPhase",
      "outputs": [],
      "payable": false,
      "stateMutability": "nonpayable",
      "type": "function"
    },
    {
      "constant": true,
      "inputs": [],
      "name": "owner",
      "outputs": [
        {
          "name": "",
          "type": "address"
        }
      ],
      "payable": false,
      "stateMutability": "view",
      "type": "function"
    },
    {
      "constant": true,
      "inputs": [],
      "name": "PRE_ICO_MAX_CAP",
      "outputs": [
        {
          "name": "",
          "type": "uint256"
        }
      ],
      "payable": false,
      "stateMutability": "view",
      "type": "function"
    },
    {
      "constant": false,
      "inputs": [
        {
          "name": "_phase",
          "type": "uint256"
        },
        {
          "name": "_tokenPrice",
          "type": "uint256"
        }
      ],
      "name": "changeIcoStageTokenPrice",
      "outputs": [],
      "payable": false,
      "stateMutability": "nonpayable",
      "type": "function"
    },
    {
      "constant": true,
      "inputs": [],
      "name": "PRE_ICO_FINISH",
      "outputs": [
        {
          "name": "",
          "type": "uint256"
        }
      ],
      "payable": false,
      "stateMutability": "view",
      "type": "function"
    },
    {
      "constant": false,
      "inputs": [],
      "name": "sendEtherManually",
      "outputs": [],
      "payable": false,
      "stateMutability": "nonpayable",
      "type": "function"
    },
    {
      "constant": true,
      "inputs": [],
      "name": "isPreIco",
      "outputs": [
        {
          "name": "",
          "type": "bool"
        }
      ],
      "payable": false,
      "stateMutability": "view",
      "type": "function"
    },
    {
      "constant": true,
      "inputs": [],
      "name": "ethCollected",
      "outputs": [
        {
          "name": "",
          "type": "uint256"
        }
      ],
      "payable": false,
      "stateMutability": "view",
      "type": "function"
    },
    {
      "constant": true,
      "inputs": [],
      "name": "ICO_START",
      "outputs": [
        {
          "name": "",
          "type": "uint256"
        }
      ],
      "payable": false,
      "stateMutability": "view",
      "type": "function"
    },
    {
      "constant": true,
      "inputs": [],
      "name": "PRE_ICO_START",
      "outputs": [
        {
          "name": "",
          "type": "uint256"
        }
      ],
      "payable": false,
      "stateMutability": "view",
      "type": "function"
    },
    {
      "constant": true,
      "inputs": [],
      "name": "newOwner",
      "outputs": [
        {
          "name": "",
          "type": "address"
        }
      ],
      "payable": false,
      "stateMutability": "view",
      "type": "function"
    },
    {
      "constant": true,
      "inputs": [],
      "name": "MIN_DEPOSIT",
      "outputs": [
        {
          "name": "",
          "type": "uint256"
        }
      ],
      "payable": false,
      "stateMutability": "view",
      "type": "function"
    },
    {
      "constant": true,
      "inputs": [],
      "name": "getCurrentStage",
      "outputs": [
        {
          "name": "",
          "type": "uint256"
        }
      ],
      "payable": false,
      "stateMutability": "view",
      "type": "function"
    },
    {
      "constant": false,
      "inputs": [
        {
          "name": "_newOwner",
          "type": "address"
        }
      ],
      "name": "transferOwnership",
      "outputs": [],
      "payable": false,
      "stateMutability": "nonpayable",
      "type": "function"
    },
    {
      "constant": false,
      "inputs": [
        {
          "name": "_phase",
          "type": "uint256"
        }
      ],
      "name": "stopPreIcoPhase",
      "outputs": [],
      "payable": false,
      "stateMutability": "nonpayable",
      "type": "function"
    },
    {
      "constant": true,
      "inputs": [],
      "name": "token",
      "outputs": [
        {
          "name": "",
          "type": "address"
        }
      ],
      "payable": false,
      "stateMutability": "view",
      "type": "function"
    },
    {
      "constant": true,
      "inputs": [],
      "name": "isIco",
      "outputs": [
        {
          "name": "",
          "type": "bool"
        }
      ],
      "payable": false,
      "stateMutability": "view",
      "type": "function"
    },
    {
      "inputs": [
        {
          "name": "_tokenAddress",
          "type": "address"
        }
      ],
      "payable": false,
      "stateMutability": "nonpayable",
      "type": "constructor"
    },
    {
      "payable": true,
      "stateMutability": "payable",
      "type": "fallback"
    }
  ],
  "bytecode": "0x6080604052600660025561067260045534801561001b57600080fd5b50604051602080611e6e8339810180604052810190808051906020019092919050505080600360006101000a81548173ffffffffffffffffffffffffffffffffffffffff021916908373ffffffffffffffffffffffffffffffffffffffff160217905550734b9b958645122478a98cd5828849850f97c65bc86000806101000a81548173ffffffffffffffffffffffffffffffffffffffff021916908373ffffffffffffffffffffffffffffffffffffffff160217905550735d8bac0b5a94f02ff02e4180120cc1e789066728600560006101000a81548173ffffffffffffffffffffffffffffffffffffffff021916908373ffffffffffffffffffffffffffffffffffffffff16021790555061013f61021a640100000000026401000000009004565b600360009054906101000a900473ffffffffffffffffffffffffffffffffffffffff1673ffffffffffffffffffffffffffffffffffffffff16636596cff3306040518263ffffffff167c0100000000000000000000000000000000000000000000000000000000028152600401808273ffffffffffffffffffffffffffffffffffffffff1673ffffffffffffffffffffffffffffffffffffffff168152602001915050600060405180830381600087803b1580156101fc57600080fd5b505af1158015610210573d6000803e3d6000fd5b5050505050610724565b60086080604051908101604052806106728152602001600254600a0a622625a00281526020016127108152602001600115158152509080600181540180825580915050906001820390600052602060002090600402016000909192909190915060008201518160000155602082015181600101556040820151816002015560608201518160030160006101000a81548160ff02191690831515021790555050505060086080604051908101604052806106728152602001600254600a0a624c4b400281526020016113888152602001600115158152509080600181540180825580915050906001820390600052602060002090600402016000909192909190915060008201518160000155602082015181600101556040820151816002015560608201518160030160006101000a81548160ff02191690831515021790555050505060086080604051908101604052806106728152602001600254600a0a627a1200028152602001610dac8152602001600115158152509080600181540180825580915050906001820390600052602060002090600402016000909192909190915060008201518160000155602082015181600101556040820151816002015560608201518160030160006101000a81548160ff02191690831515021790555050505060096080604051908101604052806106728152602001600254600a0a629896800281526020016109c48152602001600115158152509080600181540180825580915050906001820390600052602060002090600402016000909192909190915060008201518160000155602082015181600101556040820151816002015560608201518160030160006101000a81548160ff02191690831515021790555050505060096080604051908101604052806106728152602001600254600a0a62e4e1c00281526020016107088152602001600115158152509080600181540180825580915050906001820390600052602060002090600402016000909192909190915060008201518160000155602082015181600101556040820151816002015560608201518160030160006101000a81548160ff02191690831515021790555050505060096080604051908101604052806106728152602001600254600a0a62e4e1c00281526020016104b08152602001600115158152509080600181540180825580915050906001820390600052602060002090600402016000909192909190915060008201518160000155602082015181600101556040820151816002015560608201518160030160006101000a81548160ff02191690831515021790555050505060096080604051908101604052806106728152602001600254600a0a62e4e1c00281526020016102588152602001600115158152509080600181540180825580915050906001820390600052602060002090600402016000909192909190915060008201518160000155602082015181600101556040820151816002015560608201518160030160006101000a81548160ff02191690831515021790555050505060096080604051908101604052806106728152602001600254600a0a6302f34f6002815260200160008152602001600115158152509080600181540180825580915050906001820390600052602060002090600402016000909192909190915060008201518160000155602082015181600101556040820151816002015560608201518160030160006101000a81548160ff021916908315150217905550505050565b61173b806107336000396000f300608060405260043610610180576000357c0100000000000000000000000000000000000000000000000000000000900463ffffffff168063042abdf8146101cf5780631c3a3f11146101fa578063228e892e146102275780632ce0b4f61461028157806331a3b873146102ac57806337fb7e21146102d7578063518ab2a81461032e5780636b78311a146103595780637402c2b8146103a657806374f81dc61461040057806379ba50971461042d5780637ff9b5961461044457806383c481c81461046f5780638a574c1a146104a65780638da5cb5b146104d3578063993d13bd1461052a578063a4cb0a7a14610555578063a60245241461058c578063ae1dd78c146105b7578063bec17f69146105ce578063bee2e134146105fd578063d0ca12ba14610628578063d4810b6114610653578063d4ee1d901461067e578063e1e158a5146106d5578063eedbe31d14610700578063f2fde38b1461072b578063fad1106b1461076e578063fc0c546a1461079b578063ff3a5eea146107f2575b610188610821565b806101975750610196610851565b5b15156101a257600080fd5b662386f26fc1000034101515156101b857600080fd5b6101c23334610881565b15156101cd57600080fd5b005b3480156101db57600080fd5b506101e4610c53565b6040518082815260200191505060405180910390f35b34801561020657600080fd5b5061022560048036038101908080359060200190929190505050610c5f565b005b34801561023357600080fd5b5061025260048036038101908080359060200190929190505050610cf6565b604051808581526020018481526020018381526020018215151515815260200194505050505060405180910390f35b34801561028d57600080fd5b50610296610d42565b6040518082815260200191505060405180910390f35b3480156102b857600080fd5b506102c1610d4a565b6040518082815260200191505060405180910390f35b3480156102e357600080fd5b506102ec610d56565b604051808273ffffffffffffffffffffffffffffffffffffffff1673ffffffffffffffffffffffffffffffffffffffff16815260200191505060405180910390f35b34801561033a57600080fd5b50610343610d7c565b6040518082815260200191505060405180910390f35b34801561036557600080fd5b506103a4600480360381019080803573ffffffffffffffffffffffffffffffffffffffff16906020019092919080359060200190929190505050610d82565b005b3480156103b257600080fd5b506103d160048036038101908080359060200190929190505050610ed9565b604051808581526020018481526020018381526020018215151515815260200194505050505060405180910390f35b34801561040c57600080fd5b5061042b60048036038101908080359060200190929190505050610f25565b005b34801561043957600080fd5b50610442610fbc565b005b34801561045057600080fd5b50610459611077565b6040518082815260200191505060405180910390f35b34801561047b57600080fd5b506104a4600480360381019080803590602001909291908035906020019092919050505061107d565b005b3480156104b257600080fd5b506104d160048036038101908080359060200190929190505050611101565b005b3480156104df57600080fd5b506104e8611198565b604051808273ffffffffffffffffffffffffffffffffffffffff1673ffffffffffffffffffffffffffffffffffffffff16815260200191505060405180910390f35b34801561053657600080fd5b5061053f6111bd565b6040518082815260200191505060405180910390f35b34801561056157600080fd5b5061058a60048036038101908080359060200190929190803590602001909291905050506111cb565b005b34801561059857600080fd5b506105a161124f565b6040518082815260200191505060405180910390f35b3480156105c357600080fd5b506105cc611257565b005b3480156105da57600080fd5b506105e3610821565b604051808215151515815260200191505060405180910390f35b34801561060957600080fd5b50610612611334565b6040518082815260200191505060405180910390f35b34801561063457600080fd5b5061063d61133a565b6040518082815260200191505060405180910390f35b34801561065f57600080fd5b50610668611342565b6040518082815260200191505060405180910390f35b34801561068a57600080fd5b5061069361134a565b604051808273ffffffffffffffffffffffffffffffffffffffff1673ffffffffffffffffffffffffffffffffffffffff16815260200191505060405180910390f35b3480156106e157600080fd5b506106ea611370565b6040518082815260200191505060405180910390f35b34801561070c57600080fd5b5061071561137b565b6040518082815260200191505060405180910390f35b34801561073757600080fd5b5061076c600480360381019080803573ffffffffffffffffffffffffffffffffffffffff1690602001909291905050506114e2565b005b34801561077a57600080fd5b50610799600480360381019080803590602001909291905050506115bd565b005b3480156107a757600080fd5b506107b0611654565b604051808273ffffffffffffffffffffffffffffffffffffffff1673ffffffffffffffffffffffffffffffffffffffff16815260200191505060405180910390f35b3480156107fe57600080fd5b50610807610851565b604051808215151515815260200191505060405180910390f35b600042635ac0213c1115801561083b5750635ca2a5c44211155b15610849576001905061084e565b600090505b90565b600042635cf1c03c1115801561086b5750635ed596444211155b15610879576001905061087e565b600090505b90565b600080600080600080610892610851565b945061089c61137b565b935060648414156108b05760009550610c48565b8415156109fb576008848154811015156108c657fe5b906000526020600020906004020160000154925061092c6127106109136008878154811015156108f257fe5b9060005260206000209060040201600201548661167a90919063ffffffff16565b81151561091c57fe5b04846116c090919063ffffffff16565b9150610943600c600a6116de90919063ffffffff16565b610956838961167a90919063ffffffff16565b81151561095f57fe5b049050670de0b6b3a76400006007541015156109f657600560009054906101000a900473ffffffffffffffffffffffffffffffffffffffff1673ffffffffffffffffffffffffffffffffffffffff166108fc3073ffffffffffffffffffffffffffffffffffffffff16319081150290604051600060405180830381858888f193505050501580156109f4573d6000803e3d6000fd5b505b610b3b565b600984815481101515610a0a57fe5b9060005260206000209060040201600001549250610a70612710610a57600987815481101515610a3657fe5b9060005260206000209060040201600201548661167a90919063ffffffff16565b811515610a6057fe5b04846116c090919063ffffffff16565b9150610a87600c600a6116de90919063ffffffff16565b610a9a838961167a90919063ffffffff16565b811515610aa357fe5b049050670de0b6b3a7640000600754101515610b3a57600560009054906101000a900473ffffffffffffffffffffffffffffffffffffffff1673ffffffffffffffffffffffffffffffffffffffff166108fc3073ffffffffffffffffffffffffffffffffffffffff16319081150290604051600060405180830381858888f19350505050158015610b38573d6000803e3d6000fd5b505b5b600360009054906101000a900473ffffffffffffffffffffffffffffffffffffffff1673ffffffffffffffffffffffffffffffffffffffff16639c1f020a89836040518363ffffffff167c0100000000000000000000000000000000000000000000000000000000028152600401808373ffffffffffffffffffffffffffffffffffffffff1673ffffffffffffffffffffffffffffffffffffffff16815260200182815260200192505050600060405180830381600087803b158015610c0057600080fd5b505af1158015610c14573d6000803e3d6000fd5b50505050610c2d816006546116c090919063ffffffff16565b60068190555086600760008282540192505081905550600195505b505050505092915050565b670de0b6b3a764000081565b6000809054906101000a900473ffffffffffffffffffffffffffffffffffffffff1673ffffffffffffffffffffffffffffffffffffffff163373ffffffffffffffffffffffffffffffffffffffff16141515610cba57600080fd5b6001600982815481101515610ccb57fe5b906000526020600020906004020160030160006101000a81548160ff02191690831515021790555050565b600981815481101515610d0557fe5b90600052602060002090600402016000915090508060000154908060010154908060020154908060030160009054906101000a900460ff16905084565b635ed5964481565b670de0b6b3a764000081565b600560009054906101000a900473ffffffffffffffffffffffffffffffffffffffff1681565b60065481565b6000809054906101000a900473ffffffffffffffffffffffffffffffffffffffff1673ffffffffffffffffffffffffffffffffffffffff163373ffffffffffffffffffffffffffffffffffffffff16141515610ddd57600080fd5b600360009054906101000a900473ffffffffffffffffffffffffffffffffffffffff1673ffffffffffffffffffffffffffffffffffffffff16639c1f020a83836040518363ffffffff167c0100000000000000000000000000000000000000000000000000000000028152600401808373ffffffffffffffffffffffffffffffffffffffff1673ffffffffffffffffffffffffffffffffffffffff16815260200182815260200192505050600060405180830381600087803b158015610ea257600080fd5b505af1158015610eb6573d6000803e3d6000fd5b50505050610ecf816006546116c090919063ffffffff16565b6006819055505050565b600881815481101515610ee857fe5b90600052602060002090600402016000915090508060000154908060010154908060020154908060030160009054906101000a900460ff16905084565b6000809054906101000a900473ffffffffffffffffffffffffffffffffffffffff1673ffffffffffffffffffffffffffffffffffffffff163373ffffffffffffffffffffffffffffffffffffffff16141515610f8057600080fd5b6000600982815481101515610f9157fe5b906000526020600020906004020160030160006101000a81548160ff02191690831515021790555050565b600160009054906101000a900473ffffffffffffffffffffffffffffffffffffffff1673ffffffffffffffffffffffffffffffffffffffff163373ffffffffffffffffffffffffffffffffffffffff16141561107557600160009054906101000a900473ffffffffffffffffffffffffffffffffffffffff166000806101000a81548173ffffffffffffffffffffffffffffffffffffffff021916908373ffffffffffffffffffffffffffffffffffffffff1602179055505b565b60045481565b6000809054906101000a900473ffffffffffffffffffffffffffffffffffffffff1673ffffffffffffffffffffffffffffffffffffffff163373ffffffffffffffffffffffffffffffffffffffff161415156110d857600080fd5b806008838154811015156110e857fe5b9060005260206000209060040201600001819055505050565b6000809054906101000a900473ffffffffffffffffffffffffffffffffffffffff1673ffffffffffffffffffffffffffffffffffffffff163373ffffffffffffffffffffffffffffffffffffffff1614151561115c57600080fd5b600160088281548110151561116d57fe5b906000526020600020906004020160030160006101000a81548160ff02191690831515021790555050565b6000809054906101000a900473ffffffffffffffffffffffffffffffffffffffff1681565b69014542ba12a337c0000081565b6000809054906101000a900473ffffffffffffffffffffffffffffffffffffffff1673ffffffffffffffffffffffffffffffffffffffff163373ffffffffffffffffffffffffffffffffffffffff1614151561122657600080fd5b8060098381548110151561123657fe5b9060005260206000209060040201600001819055505050565b635ca2a5c481565b6000809054906101000a900473ffffffffffffffffffffffffffffffffffffffff1673ffffffffffffffffffffffffffffffffffffffff163373ffffffffffffffffffffffffffffffffffffffff161415156112b257600080fd5b600560009054906101000a900473ffffffffffffffffffffffffffffffffffffffff1673ffffffffffffffffffffffffffffffffffffffff166108fc3073ffffffffffffffffffffffffffffffffffffffff16319081150290604051600060405180830381858888f19350505050158015611331573d6000803e3d6000fd5b50565b60075481565b635cf1c03c81565b635ac0213c81565b600160009054906101000a900473ffffffffffffffffffffffffffffffffffffffff1681565b662386f26fc1000081565b6000806000611388610821565b806113975750611396610851565b5b15156113a257600080fd5b6113aa610821565b1561143d57600090505b60088054905081101561143c576008818154811015156113d057fe5b906000526020600020906004020160010154820191508160065411158015611422575060088181548110151561140257fe5b906000526020600020906004020160030160009054906101000a900460ff165b1561142f578092506114dd565b80806001019150506113b4565b5b611445610851565b156114d857600090505b6009805490508110156114d75760098181548110151561146b57fe5b9060005260206000209060040201600101548201915081600654111580156114bd575060088181548110151561149d57fe5b906000526020600020906004020160030160009054906101000a900460ff165b156114ca578092506114dd565b808060010191505061144f565b5b606492505b505090565b6000809054906101000a900473ffffffffffffffffffffffffffffffffffffffff1673ffffffffffffffffffffffffffffffffffffffff163373ffffffffffffffffffffffffffffffffffffffff1614151561153d57600080fd5b600073ffffffffffffffffffffffffffffffffffffffff168173ffffffffffffffffffffffffffffffffffffffff161415151561157957600080fd5b80600160006101000a81548173ffffffffffffffffffffffffffffffffffffffff021916908373ffffffffffffffffffffffffffffffffffffffff16021790555050565b6000809054906101000a900473ffffffffffffffffffffffffffffffffffffffff1673ffffffffffffffffffffffffffffffffffffffff163373ffffffffffffffffffffffffffffffffffffffff1614151561161857600080fd5b600060088281548110151561162957fe5b906000526020600020906004020160030160006101000a81548160ff02191690831515021790555050565b600360009054906101000a900473ffffffffffffffffffffffffffffffffffffffff1681565b600080600084148061168c5750600083145b1561169a57600091506116b9565b82840290508284828115156116ab57fe5b041415156116b557fe5b8091505b5092915050565b60008082840190508381101515156116d457fe5b8091505092915050565b60008060008314156116f35760019150611708565b82840a905083811015151561170457fe5b8091505b50929150505600a165627a7a7230582069929bb6bc45e8a92f7dc06c59b8b6ba4c37ed84a9479d29203bbb1cf62852500029",
  "source": "pragma solidity ^0.4.22;\n\n//standard library for uint\nlibrary SafeMath { \n  function mul(uint256 a, uint256 b) internal pure returns (uint256) {\n    if (a == 0 || b == 0){\n        return 0;\n    }\n    uint256 c = a * b;\n    assert(c / a == b);\n    return c;\n  }\n\n  function sub(uint256 a, uint256 b) internal pure returns (uint256) {\n    assert(b <= a);\n    return a - b;\n  }\n\n  function add(uint256 a, uint256 b) internal pure returns (uint256) {\n    uint256 c = a + b;\n    assert(c >= a);\n    return c;\n  }\n\n  function pow(uint256 a, uint256 b) internal pure returns (uint256){ //power function\n    if (b == 0){\n      return 1;\n    }\n    uint256 c = a**b;\n    assert (c >= a);\n    return c;\n  }\n}\n\n//standard contract to identify owner\ncontract Ownable {\n\n  address public owner;\n\n  address public newOwner;\n\n  modifier onlyOwner() {\n    require(msg.sender == owner);\n    _;\n  }\n  \n  function transferOwnership(address _newOwner) public onlyOwner {\n    require(_newOwner != address(0));\n    newOwner = _newOwner;\n  }\n\n  function acceptOwnership() public {\n    if (msg.sender == newOwner) {\n      owner = newOwner;\n    }\n  }\n}\n//Abstract Token contract\ncontract SHAREToken{\n  function setCrowdsaleContract (address) public;\n  function sendCrowdsaleTokens(address, uint256)  public;\n}\n\n//Crowdsale contract\ncontract ShareCrowdsale is Ownable{\n\n  using SafeMath for uint;\n\n  uint decimals = 6;\n\n  // Token contract address\n  SHAREToken public token;\n\n  uint public tokenPrice = 1650; // 1ETH = 1650 Tokens\n\n  address public distributionAddress;\n\n  constructor (address _tokenAddress) public {\n    token = SHAREToken(_tokenAddress);\n    owner = 0x4B9b958645122478a98cd5828849850F97c65Bc8;\n\n    distributionAddress = 0x5d8baC0B5A94f02ff02E4180120cC1e789066728;\n\n    setupStages();\n\n    token.setCrowdsaleContract(this);    \n  }\n\n  uint public constant PRE_ICO_START = 1522540860;//1522540860; //04/01/2018 12:01:00 AM GMT\n  uint public constant PRE_ICO_FINISH = 1554163140; //04/01/2019 11:59:00 PM GMT\n\n  uint public constant PRE_ICO_MIN_CAP = 1 ether;\n  uint public constant PRE_ICO_MAX_CAP = 6000 ether;\n\n  uint public constant ICO_START = 1559347260; //06/01/2019 12:01:00 AM GMT\n  uint public constant ICO_FINISH = 1591055940; //06/01/2020 11:59:00 PM GMT\n\n  uint public constant ICO_MIN_CAP = 1 ether;\n\n  uint public tokensSold;\n  uint public ethCollected;\n\n  uint public constant MIN_DEPOSIT = 0.01 ether;\n\n  struct Stage {\n    uint tokensPrice;\n    uint tokensDistribution;\n    uint discount;\n    bool isActive;\n  }\n  \n  Stage[] public preIcoStages;\n  Stage[] public icoStages;\n\n  function setupStages () internal {\n    preIcoStages.push(Stage(1650,2500000 * ((uint)(10) ** (uint)(decimals)), 10000, true));\n    preIcoStages.push(Stage(1650,5000000 * ((uint)(10) ** (uint)(decimals)), 5000, true));\n    preIcoStages.push(Stage(1650,8000000 * ((uint)(10) ** (uint)(decimals)), 3500, true));\n\n    icoStages.push(Stage(1650,10000000 * ((uint)(10) ** (uint)(decimals)), 2500, true));\n    icoStages.push(Stage(1650,15000000 * ((uint)(10) ** (uint)(decimals)), 1800, true));\n    icoStages.push(Stage(1650,15000000 * ((uint)(10) ** (uint)(decimals)), 1200, true));\n    icoStages.push(Stage(1650,15000000 * ((uint)(10) ** (uint)(decimals)), 600, true));\n    icoStages.push(Stage(1650,49500000 * ((uint)(10) ** (uint)(decimals)), 0, true)); \n  }\n  \n  function stopPreIcoPhase (uint _phase) external onlyOwner {\n    preIcoStages[_phase].isActive = false;\n  }\n\n  function stopIcoPhase (uint _phase) external onlyOwner {\n    icoStages[_phase].isActive = false;\n  }\n\n  function startPreIcoPhase (uint _phase) external onlyOwner {\n    preIcoStages[_phase].isActive = true;\n  }\n\n  function startIcoPhase (uint _phase) external onlyOwner {\n    icoStages[_phase].isActive = true;\n  }\n\n  function changePreIcoStageTokenPrice (uint _phase, uint _tokenPrice) external onlyOwner {\n    preIcoStages[_phase].tokensPrice = _tokenPrice;\n  }\n  \n  function changeIcoStageTokenPrice (uint _phase, uint _tokenPrice) external onlyOwner {\n    icoStages[_phase].tokensPrice = _tokenPrice;\n  }\n  \n  function () public payable {\n    require (isPreIco() || isIco());\n    require (msg.value >= MIN_DEPOSIT);\n    require (buy(msg.sender, msg.value));\n  }\n\n  function buy (address _address, uint _value) internal returns(bool) {\n    bool isIcoNow = isIco();\n    uint currentStage = getCurrentStage();\n    if (currentStage == 100){\n      return false;\n    }\n    \n    if (!isIcoNow){\n      uint _phasePrice = preIcoStages[currentStage].tokensPrice;\n      uint _tokenPrice = _phasePrice.add(_phasePrice.mul(preIcoStages[currentStage].discount)/10000);\n      uint tokensToSend = _value.mul(_tokenPrice)/(uint(10).pow(uint(12))); //decimals difference\n\n      if(ethCollected >= PRE_ICO_MIN_CAP){\n        distributionAddress.transfer(address(this).balance);\n      }\n    }else{\n      _phasePrice = icoStages[currentStage].tokensPrice;\n      _tokenPrice = _phasePrice.add(_phasePrice.mul(icoStages[currentStage].discount)/10000);\n      tokensToSend = _value.mul(_tokenPrice)/(uint(10).pow(uint(12))); //decimals difference\n\n      if(ethCollected >= ICO_MIN_CAP){\n        distributionAddress.transfer(address(this).balance);\n      }\n    }\n\n    token.sendCrowdsaleTokens(_address,tokensToSend);\n    \n    tokensSold = tokensSold.add(tokensToSend);\n    ethCollected += _value;\n    \n    return true;\n  }\n\n  function getCurrentStage () public view returns(uint) {\n    require (isPreIco() || isIco());\n    uint buffer;\n\n    if(isPreIco()){\n      for (uint i = 0; i < preIcoStages.length; i++){\n        buffer += preIcoStages[i].tokensDistribution;\n        if(tokensSold <= buffer && preIcoStages[i].isActive){\n          return i;\n        }\n      }\n    }\n\n    if(isIco()){\n      for (i = 0; i < icoStages.length; i++){\n        buffer += icoStages[i].tokensDistribution;\n        if(tokensSold <= buffer && preIcoStages[i].isActive){\n          return i;\n        }\n      }\n    }\n    return 100; //something went wrong\n  }\n\n  function isPreIco () public view returns(bool) {\n    if(PRE_ICO_START <= now && now <= PRE_ICO_FINISH){\n      return true;\n    }\n    return false;\n  }\n\n  function  isIco() public view returns(bool) {\n    if(ICO_START <= now && now <= ICO_FINISH){\n      return true;\n    }\n    return false;\n  }\n\n  function sendCrowdsaleTokensManually (address _address, uint _value) external onlyOwner {\n    token.sendCrowdsaleTokens(_address,_value);\n    tokensSold = tokensSold.add(_value);\n  }\n\n  //if something went wrong\n  function sendEtherManually () public onlyOwner {\n    distributionAddress.transfer(address(this).balance);\n  }\n}\n",
  "sourcePath": "/home/romuch/Desktop/SHARE/contracts/ShareCrowdsaleAll.sol",
  "compiler": {
    "name": "solc",
    "version": "0.4.22+commit.4cb486ee.Emscripten.clang"
  },
  "schemaVersion": "1.0.1",
  "updatedAt": "2018-05-23T10:08:31.269Z"
}