{
  "contractName": "SHAREToken",
  "abi": [
    {
      "constant": true,
      "inputs": [],
      "name": "name",
      "outputs": [
        {
          "name": "",
          "type": "string"
        }
      ],
      "payable": false,
      "stateMutability": "view",
      "type": "function"
    },
    {
      "constant": false,
      "inputs": [
        {
          "name": "_spender",
          "type": "address"
        },
        {
          "name": "_amount",
          "type": "uint256"
        }
      ],
      "name": "approve",
      "outputs": [
        {
          "name": "success",
          "type": "bool"
        }
      ],
      "payable": false,
      "stateMutability": "nonpayable",
      "type": "function"
    },
    {
      "constant": true,
      "inputs": [],
      "name": "totalSupply",
      "outputs": [
        {
          "name": "",
          "type": "uint256"
        }
      ],
      "payable": false,
      "stateMutability": "view",
      "type": "function"
    },
    {
      "constant": false,
      "inputs": [
        {
          "name": "_from",
          "type": "address"
        },
        {
          "name": "_to",
          "type": "address"
        },
        {
          "name": "_amount",
          "type": "uint256"
        }
      ],
      "name": "transferFrom",
      "outputs": [
        {
          "name": "success",
          "type": "bool"
        }
      ],
      "payable": false,
      "stateMutability": "nonpayable",
      "type": "function"
    },
    {
      "constant": false,
      "inputs": [
        {
          "name": "_addresses",
          "type": "address[]"
        },
        {
          "name": "_values",
          "type": "uint256[]"
        }
      ],
      "name": "platformReferralBalance",
      "outputs": [],
      "payable": false,
      "stateMutability": "nonpayable",
      "type": "function"
    },
    {
      "constant": true,
      "inputs": [],
      "name": "decimals",
      "outputs": [
        {
          "name": "",
          "type": "uint8"
        }
      ],
      "payable": false,
      "stateMutability": "view",
      "type": "function"
    },
    {
      "constant": true,
      "inputs": [],
      "name": "crowdsaleContract",
      "outputs": [
        {
          "name": "",
          "type": "address"
        }
      ],
      "payable": false,
      "stateMutability": "view",
      "type": "function"
    },
    {
      "constant": false,
      "inputs": [
        {
          "name": "_addresses",
          "type": "address[]"
        },
        {
          "name": "_values",
          "type": "uint256[]"
        }
      ],
      "name": "sendTeamBalance",
      "outputs": [],
      "payable": false,
      "stateMutability": "nonpayable",
      "type": "function"
    },
    {
      "constant": true,
      "inputs": [],
      "name": "tokenHolder",
      "outputs": [
        {
          "name": "",
          "type": "address"
        }
      ],
      "payable": false,
      "stateMutability": "view",
      "type": "function"
    },
    {
      "constant": true,
      "inputs": [],
      "name": "crowdsaleBalance",
      "outputs": [
        {
          "name": "",
          "type": "uint256"
        }
      ],
      "payable": false,
      "stateMutability": "view",
      "type": "function"
    },
    {
      "constant": false,
      "inputs": [
        {
          "name": "_request",
          "type": "bool"
        }
      ],
      "name": "changeLockTransfer",
      "outputs": [],
      "payable": false,
      "stateMutability": "nonpayable",
      "type": "function"
    },
    {
      "constant": true,
      "inputs": [],
      "name": "advisorsBalance",
      "outputs": [
        {
          "name": "",
          "type": "uint256"
        }
      ],
      "payable": false,
      "stateMutability": "view",
      "type": "function"
    },
    {
      "constant": false,
      "inputs": [
        {
          "name": "_address",
          "type": "address"
        }
      ],
      "name": "setCrowdsaleContract",
      "outputs": [],
      "payable": false,
      "stateMutability": "nonpayable",
      "type": "function"
    },
    {
      "constant": false,
      "inputs": [
        {
          "name": "_addresses",
          "type": "address[]"
        },
        {
          "name": "_values",
          "type": "uint256[]"
        }
      ],
      "name": "sendFoundersBalance",
      "outputs": [],
      "payable": false,
      "stateMutability": "nonpayable",
      "type": "function"
    },
    {
      "constant": false,
      "inputs": [
        {
          "name": "_value",
          "type": "uint256"
        }
      ],
      "name": "burnTokens",
      "outputs": [],
      "payable": false,
      "stateMutability": "nonpayable",
      "type": "function"
    },
    {
      "constant": true,
      "inputs": [
        {
          "name": "_address",
          "type": "address"
        }
      ],
      "name": "balanceOf",
      "outputs": [
        {
          "name": "balance",
          "type": "uint256"
        }
      ],
      "payable": false,
      "stateMutability": "view",
      "type": "function"
    },
    {
      "constant": false,
      "inputs": [],
      "name": "acceptOwnership",
      "outputs": [],
      "payable": false,
      "stateMutability": "nonpayable",
      "type": "function"
    },
    {
      "constant": true,
      "inputs": [],
      "name": "foundersBalance",
      "outputs": [
        {
          "name": "",
          "type": "uint256"
        }
      ],
      "payable": false,
      "stateMutability": "view",
      "type": "function"
    },
    {
      "constant": true,
      "inputs": [],
      "name": "teamBalance",
      "outputs": [
        {
          "name": "",
          "type": "uint256"
        }
      ],
      "payable": false,
      "stateMutability": "view",
      "type": "function"
    },
    {
      "constant": true,
      "inputs": [],
      "name": "owner",
      "outputs": [
        {
          "name": "",
          "type": "address"
        }
      ],
      "payable": false,
      "stateMutability": "view",
      "type": "function"
    },
    {
      "constant": false,
      "inputs": [],
      "name": "burnUnsoldTokens",
      "outputs": [],
      "payable": false,
      "stateMutability": "nonpayable",
      "type": "function"
    },
    {
      "constant": true,
      "inputs": [],
      "name": "symbol",
      "outputs": [
        {
          "name": "",
          "type": "string"
        }
      ],
      "payable": false,
      "stateMutability": "view",
      "type": "function"
    },
    {
      "constant": false,
      "inputs": [
        {
          "name": "_address",
          "type": "address"
        },
        {
          "name": "_value",
          "type": "uint256"
        }
      ],
      "name": "sendCrowdsaleTokens",
      "outputs": [],
      "payable": false,
      "stateMutability": "nonpayable",
      "type": "function"
    },
    {
      "constant": false,
      "inputs": [
        {
          "name": "_to",
          "type": "address"
        },
        {
          "name": "_amount",
          "type": "uint256"
        }
      ],
      "name": "transfer",
      "outputs": [
        {
          "name": "success",
          "type": "bool"
        }
      ],
      "payable": false,
      "stateMutability": "nonpayable",
      "type": "function"
    },
    {
      "constant": false,
      "inputs": [
        {
          "name": "_addresses",
          "type": "address[]"
        },
        {
          "name": "_values",
          "type": "uint256[]"
        }
      ],
      "name": "sendAdvisorsBalance",
      "outputs": [],
      "payable": false,
      "stateMutability": "nonpayable",
      "type": "function"
    },
    {
      "constant": true,
      "inputs": [],
      "name": "locked",
      "outputs": [
        {
          "name": "",
          "type": "bool"
        }
      ],
      "payable": false,
      "stateMutability": "view",
      "type": "function"
    },
    {
      "constant": true,
      "inputs": [],
      "name": "bountyBalance",
      "outputs": [
        {
          "name": "",
          "type": "uint256"
        }
      ],
      "payable": false,
      "stateMutability": "view",
      "type": "function"
    },
    {
      "constant": true,
      "inputs": [],
      "name": "newOwner",
      "outputs": [
        {
          "name": "",
          "type": "address"
        }
      ],
      "payable": false,
      "stateMutability": "view",
      "type": "function"
    },
    {
      "constant": true,
      "inputs": [
        {
          "name": "_owner",
          "type": "address"
        },
        {
          "name": "_spender",
          "type": "address"
        }
      ],
      "name": "allowance",
      "outputs": [
        {
          "name": "remaining",
          "type": "uint256"
        }
      ],
      "payable": false,
      "stateMutability": "view",
      "type": "function"
    },
    {
      "constant": true,
      "inputs": [],
      "name": "platformReferral",
      "outputs": [
        {
          "name": "",
          "type": "uint256"
        }
      ],
      "payable": false,
      "stateMutability": "view",
      "type": "function"
    },
    {
      "constant": false,
      "inputs": [
        {
          "name": "_newOwner",
          "type": "address"
        }
      ],
      "name": "transferOwnership",
      "outputs": [],
      "payable": false,
      "stateMutability": "nonpayable",
      "type": "function"
    },
    {
      "constant": false,
      "inputs": [
        {
          "name": "_addresses",
          "type": "address[]"
        },
        {
          "name": "_values",
          "type": "uint256[]"
        }
      ],
      "name": "sendBountyBalance",
      "outputs": [],
      "payable": false,
      "stateMutability": "nonpayable",
      "type": "function"
    },
    {
      "inputs": [],
      "payable": false,
      "stateMutability": "nonpayable",
      "type": "constructor"
    },
    {
      "anonymous": false,
      "inputs": [
        {
          "indexed": true,
          "name": "_from",
          "type": "address"
        },
        {
          "indexed": true,
          "name": "_to",
          "type": "address"
        },
        {
          "indexed": false,
          "name": "_value",
          "type": "uint256"
        }
      ],
      "name": "Transfer",
      "type": "event"
    },
    {
      "anonymous": false,
      "inputs": [
        {
          "indexed": true,
          "name": "_owner",
          "type": "address"
        },
        {
          "indexed": true,
          "name": "_spender",
          "type": "address"
        },
        {
          "indexed": false,
          "name": "_value",
          "type": "uint256"
        }
      ],
      "name": "Approval",
      "type": "event"
    }
  ],
  "bytecode": "0x6080604052600660ff16600a0a630bebc200026002556001600660006101000a81548160ff021916908315150217905550600660ff16600a0a6307270e0002600855600660ff16600a0a6301312d0002600955600660ff16600a0a6302625a0002600a55600660ff16600a0a6298968002600b55600660ff16600a0a625b8d8002600c55600660ff16600a0a623d090002600d5534801561009f57600080fd5b50734b9b958645122478a98cd5828849850f97c65bc8600360006101000a81548173ffffffffffffffffffffffffffffffffffffffff021916908373ffffffffffffffffffffffffffffffffffffffff160217905550734b9b958645122478a98cd5828849850f97c65bc8600660016101000a81548173ffffffffffffffffffffffffffffffffffffffff021916908373ffffffffffffffffffffffffffffffffffffffff16021790555060025460046000600660019054906101000a900473ffffffffffffffffffffffffffffffffffffffff1673ffffffffffffffffffffffffffffffffffffffff1673ffffffffffffffffffffffffffffffffffffffff16815260200190815260200160002081905550600660019054906101000a900473ffffffffffffffffffffffffffffffffffffffff1673ffffffffffffffffffffffffffffffffffffffff163073ffffffffffffffffffffffffffffffffffffffff167fddf252ad1be2c89b69c2b068fc378daa952ba7f163c4a11628f55a4df523b3ef6002546040518082815260200191505060405180910390a3612c068061024a6000396000f300608060405260043610610196576000357c0100000000000000000000000000000000000000000000000000000000900463ffffffff16806306fdde031461019b578063095ea7b31461022b57806318160ddd1461029057806323b872dd146102bb5780632a940a0c14610340578063313ce5671461039357806331616395146103c45780633e802aff1461041b578063420a83e71461046e57806342ae0a16146104c55780635d216562146104f05780636324af1f1461051f5780636596cff31461054a5780636c4db7cc1461058d5780636d1b229d146105e057806370a082311461060d57806379ba5097146106645780637afcb5241461067b57806389e85217146106a65780638da5cb5b146106d1578063940bb3441461072857806395d89b411461073f5780639c1f020a146107cf578063a9059cbb1461081c578063b76c5c9f14610881578063cf309012146108d4578063d03b41a914610903578063d4ee1d901461092e578063dd62ed3e14610985578063f2b2ff1b146109fc578063f2fde38b14610a27578063fc99898114610a6a575b600080fd5b3480156101a757600080fd5b506101b0610abd565b6040518080602001828103825283818151815260200191508051906020019080838360005b838110156101f05780820151818401526020810190506101d5565b50505050905090810190601f16801561021d5780820380516001836020036101000a031916815260200191505b509250505060405180910390f35b34801561023757600080fd5b50610276600480360381019080803573ffffffffffffffffffffffffffffffffffffffff16906020019092919080359060200190929190505050610af6565b604051808215151515815260200191505060405180910390f35b34801561029c57600080fd5b506102a5610be8565b6040518082815260200191505060405180910390f35b3480156102c757600080fd5b50610326600480360381019080803573ffffffffffffffffffffffffffffffffffffffff169060200190929190803573ffffffffffffffffffffffffffffffffffffffff16906020019092919080359060200190929190505050610bf2565b604051808215151515815260200191505060405180910390f35b34801561034c57600080fd5b50610391600480360381019080803590602001908201803590602001919091929391929390803590602001908201803590602001919091929391929390505050610f2d565b005b34801561039f57600080fd5b506103a8611293565b604051808260ff1660ff16815260200191505060405180910390f35b3480156103d057600080fd5b506103d9611298565b604051808273ffffffffffffffffffffffffffffffffffffffff1673ffffffffffffffffffffffffffffffffffffffff16815260200191505060405180910390f35b34801561042757600080fd5b5061046c6004803603810190808035906020019082018035906020019190919293919293908035906020019082018035906020019190919293919293905050506112be565b005b34801561047a57600080fd5b50610483611624565b604051808273ffffffffffffffffffffffffffffffffffffffff1673ffffffffffffffffffffffffffffffffffffffff16815260200191505060405180910390f35b3480156104d157600080fd5b506104da61164a565b6040518082815260200191505060405180910390f35b3480156104fc57600080fd5b5061051d600480360381019080803515159060200190929190505050611650565b005b34801561052b57600080fd5b506105346116c8565b6040518082815260200191505060405180910390f35b34801561055657600080fd5b5061058b600480360381019080803573ffffffffffffffffffffffffffffffffffffffff1690602001909291905050506116ce565b005b34801561059957600080fd5b506105de60048036038101908080359060200190820180359060200191909192939192939080359060200190820180359060200191909192939192939050505061176f565b005b3480156105ec57600080fd5b5061060b60048036038101908080359060200190929190505050611ad5565b005b34801561061957600080fd5b5061064e600480360381019080803573ffffffffffffffffffffffffffffffffffffffff169060200190929190505050611bd8565b6040518082815260200191505060405180910390f35b34801561067057600080fd5b50610679611c21565b005b34801561068757600080fd5b50610690611cdc565b6040518082815260200191505060405180910390f35b3480156106b257600080fd5b506106bb611ce2565b6040518082815260200191505060405180910390f35b3480156106dd57600080fd5b506106e6611ce8565b604051808273ffffffffffffffffffffffffffffffffffffffff1673ffffffffffffffffffffffffffffffffffffffff16815260200191505060405180910390f35b34801561073457600080fd5b5061073d611d0e565b005b34801561074b57600080fd5b50610754611e5c565b6040518080602001828103825283818151815260200191508051906020019080838360005b83811015610794578082015181840152602081019050610779565b50505050905090810190601f1680156107c15780820380516001836020036101000a031916815260200191505b509250505060405180910390f35b3480156107db57600080fd5b5061081a600480360381019080803573ffffffffffffffffffffffffffffffffffffffff16906020019092919080359060200190929190505050611e95565b005b34801561082857600080fd5b50610867600480360381019080803573ffffffffffffffffffffffffffffffffffffffff16906020019092919080359060200190929190505050612105565b604051808215151515815260200191505060405180910390f35b34801561088d57600080fd5b506108d2600480360381019080803590602001908201803590602001919091929391929390803590602001908201803590602001919091929391929390505050612330565b005b3480156108e057600080fd5b506108e9612696565b604051808215151515815260200191505060405180910390f35b34801561090f57600080fd5b506109186126a9565b6040518082815260200191505060405180910390f35b34801561093a57600080fd5b506109436126af565b604051808273ffffffffffffffffffffffffffffffffffffffff1673ffffffffffffffffffffffffffffffffffffffff16815260200191505060405180910390f35b34801561099157600080fd5b506109e6600480360381019080803573ffffffffffffffffffffffffffffffffffffffff169060200190929190803573ffffffffffffffffffffffffffffffffffffffff1690602001909291905050506126d5565b6040518082815260200191505060405180910390f35b348015610a0857600080fd5b50610a1161275c565b6040518082815260200191505060405180910390f35b348015610a3357600080fd5b50610a68600480360381019080803573ffffffffffffffffffffffffffffffffffffffff169060200190929190505050612762565b005b348015610a7657600080fd5b50610abb60048036038101908080359060200190820180359060200191909192939192939080359060200190820180359060200191909192939192939050505061283d565b005b6040805190810160405280600581526020017f534841524500000000000000000000000000000000000000000000000000000081525081565b600081600560003373ffffffffffffffffffffffffffffffffffffffff1673ffffffffffffffffffffffffffffffffffffffff16815260200190815260200160002060008573ffffffffffffffffffffffffffffffffffffffff1673ffffffffffffffffffffffffffffffffffffffff168152602001908152602001600020819055508273ffffffffffffffffffffffffffffffffffffffff163373ffffffffffffffffffffffffffffffffffffffff167f8c5be1e5ebec7d5bd14f71427d1e84f3dd0314c0f7b2291e5b200ac8c7c3b925846040518082815260200191505060405180910390a36001905092915050565b6000600254905090565b60008273ffffffffffffffffffffffffffffffffffffffff163073ffffffffffffffffffffffffffffffffffffffff1614158015610c5d5750600073ffffffffffffffffffffffffffffffffffffffff168373ffffffffffffffffffffffffffffffffffffffff1614155b1515610c6857600080fd5b600660009054906101000a900460ff16151515610c8457600080fd5b610cd682600460008773ffffffffffffffffffffffffffffffffffffffff1673ffffffffffffffffffffffffffffffffffffffff16815260200190815260200160002054612ba390919063ffffffff16565b600460008673ffffffffffffffffffffffffffffffffffffffff1673ffffffffffffffffffffffffffffffffffffffff16815260200190815260200160002081905550610da882600560008773ffffffffffffffffffffffffffffffffffffffff1673ffffffffffffffffffffffffffffffffffffffff16815260200190815260200160002060003373ffffffffffffffffffffffffffffffffffffffff1673ffffffffffffffffffffffffffffffffffffffff16815260200190815260200160002054612ba390919063ffffffff16565b600560008673ffffffffffffffffffffffffffffffffffffffff1673ffffffffffffffffffffffffffffffffffffffff16815260200190815260200160002060003373ffffffffffffffffffffffffffffffffffffffff1673ffffffffffffffffffffffffffffffffffffffff16815260200190815260200160002081905550610e7a82600460008673ffffffffffffffffffffffffffffffffffffffff1673ffffffffffffffffffffffffffffffffffffffff16815260200190815260200160002054612bbc90919063ffffffff16565b600460008573ffffffffffffffffffffffffffffffffffffffff1673ffffffffffffffffffffffffffffffffffffffff168152602001908152602001600020819055508273ffffffffffffffffffffffffffffffffffffffff168473ffffffffffffffffffffffffffffffffffffffff167fddf252ad1be2c89b69c2b068fc378daa952ba7f163c4a11628f55a4df523b3ef846040518082815260200191505060405180910390a3600190509392505050565b6000806000809054906101000a900473ffffffffffffffffffffffffffffffffffffffff1673ffffffffffffffffffffffffffffffffffffffff163373ffffffffffffffffffffffffffffffffffffffff16141515610f8b57600080fd5b60009150600090505b858590508110156111975761102f8484838181101515610fb057fe5b90506020020135600460008989868181101515610fc957fe5b9050602002013573ffffffffffffffffffffffffffffffffffffffff1673ffffffffffffffffffffffffffffffffffffffff1673ffffffffffffffffffffffffffffffffffffffff16815260200190815260200160002054612bbc90919063ffffffff16565b60046000888885818110151561104157fe5b9050602002013573ffffffffffffffffffffffffffffffffffffffff1673ffffffffffffffffffffffffffffffffffffffff1673ffffffffffffffffffffffffffffffffffffffff168152602001908152602001600020819055506110c384848381811015156110ad57fe5b9050602002013583612bbc90919063ffffffff16565b915085858281811015156110d357fe5b9050602002013573ffffffffffffffffffffffffffffffffffffffff1673ffffffffffffffffffffffffffffffffffffffff16600660019054906101000a900473ffffffffffffffffffffffffffffffffffffffff1673ffffffffffffffffffffffffffffffffffffffff167fddf252ad1be2c89b69c2b068fc378daa952ba7f163c4a11628f55a4df523b3ef868685818110151561116e57fe5b905060200201356040518082815260200191505060405180910390a38080600101915050610f94565b6111ac82600b54612ba390919063ffffffff16565b600b819055506112268260046000600660019054906101000a900473ffffffffffffffffffffffffffffffffffffffff1673ffffffffffffffffffffffffffffffffffffffff1673ffffffffffffffffffffffffffffffffffffffff16815260200190815260200160002054612ba390919063ffffffff16565b60046000600660019054906101000a900473ffffffffffffffffffffffffffffffffffffffff1673ffffffffffffffffffffffffffffffffffffffff1673ffffffffffffffffffffffffffffffffffffffff16815260200190815260200160002081905550505050505050565b600681565b600760009054906101000a900473ffffffffffffffffffffffffffffffffffffffff1681565b6000806000809054906101000a900473ffffffffffffffffffffffffffffffffffffffff1673ffffffffffffffffffffffffffffffffffffffff163373ffffffffffffffffffffffffffffffffffffffff1614151561131c57600080fd5b60009150600090505b85859050811015611528576113c0848483818110151561134157fe5b9050602002013560046000898986818110151561135a57fe5b9050602002013573ffffffffffffffffffffffffffffffffffffffff1673ffffffffffffffffffffffffffffffffffffffff1673ffffffffffffffffffffffffffffffffffffffff16815260200190815260200160002054612bbc90919063ffffffff16565b6004600088888581811015156113d257fe5b9050602002013573ffffffffffffffffffffffffffffffffffffffff1673ffffffffffffffffffffffffffffffffffffffff1673ffffffffffffffffffffffffffffffffffffffff16815260200190815260200160002081905550611454848483818110151561143e57fe5b9050602002013583612bbc90919063ffffffff16565b9150858582818110151561146457fe5b9050602002013573ffffffffffffffffffffffffffffffffffffffff1673ffffffffffffffffffffffffffffffffffffffff16600660019054906101000a900473ffffffffffffffffffffffffffffffffffffffff1673ffffffffffffffffffffffffffffffffffffffff167fddf252ad1be2c89b69c2b068fc378daa952ba7f163c4a11628f55a4df523b3ef86868581811015156114ff57fe5b905060200201356040518082815260200191505060405180910390a38080600101915050611325565b61153d82600954612ba390919063ffffffff16565b6009819055506115b78260046000600660019054906101000a900473ffffffffffffffffffffffffffffffffffffffff1673ffffffffffffffffffffffffffffffffffffffff1673ffffffffffffffffffffffffffffffffffffffff16815260200190815260200160002054612ba390919063ffffffff16565b60046000600660019054906101000a900473ffffffffffffffffffffffffffffffffffffffff1673ffffffffffffffffffffffffffffffffffffffff1673ffffffffffffffffffffffffffffffffffffffff16815260200190815260200160002081905550505050505050565b600660019054906101000a900473ffffffffffffffffffffffffffffffffffffffff1681565b60085481565b6000809054906101000a900473ffffffffffffffffffffffffffffffffffffffff1673ffffffffffffffffffffffffffffffffffffffff163373ffffffffffffffffffffffffffffffffffffffff161415156116ab57600080fd5b80600660006101000a81548160ff02191690831515021790555050565b600d5481565b600073ffffffffffffffffffffffffffffffffffffffff16600760009054906101000a900473ffffffffffffffffffffffffffffffffffffffff1673ffffffffffffffffffffffffffffffffffffffff1614151561172b57600080fd5b80600760006101000a81548173ffffffffffffffffffffffffffffffffffffffff021916908373ffffffffffffffffffffffffffffffffffffffff16021790555050565b6000806000809054906101000a900473ffffffffffffffffffffffffffffffffffffffff1673ffffffffffffffffffffffffffffffffffffffff163373ffffffffffffffffffffffffffffffffffffffff161415156117cd57600080fd5b60009150600090505b858590508110156119d95761187184848381811015156117f257fe5b9050602002013560046000898986818110151561180b57fe5b9050602002013573ffffffffffffffffffffffffffffffffffffffff1673ffffffffffffffffffffffffffffffffffffffff1673ffffffffffffffffffffffffffffffffffffffff16815260200190815260200160002054612bbc90919063ffffffff16565b60046000888885818110151561188357fe5b9050602002013573ffffffffffffffffffffffffffffffffffffffff1673ffffffffffffffffffffffffffffffffffffffff1673ffffffffffffffffffffffffffffffffffffffff1681526020019081526020016000208190555061190584848381811015156118ef57fe5b9050602002013583612bbc90919063ffffffff16565b9150858582818110151561191557fe5b9050602002013573ffffffffffffffffffffffffffffffffffffffff1673ffffffffffffffffffffffffffffffffffffffff16600660019054906101000a900473ffffffffffffffffffffffffffffffffffffffff1673ffffffffffffffffffffffffffffffffffffffff167fddf252ad1be2c89b69c2b068fc378daa952ba7f163c4a11628f55a4df523b3ef86868581811015156119b057fe5b905060200201356040518082815260200191505060405180910390a380806001019150506117d6565b6119ee82600a54612ba390919063ffffffff16565b600a81905550611a688260046000600660019054906101000a900473ffffffffffffffffffffffffffffffffffffffff1673ffffffffffffffffffffffffffffffffffffffff1673ffffffffffffffffffffffffffffffffffffffff16815260200190815260200160002054612ba390919063ffffffff16565b60046000600660019054906101000a900473ffffffffffffffffffffffffffffffffffffffff1673ffffffffffffffffffffffffffffffffffffffff1673ffffffffffffffffffffffffffffffffffffffff16815260200190815260200160002081905550505050505050565b611b2781600460003373ffffffffffffffffffffffffffffffffffffffff1673ffffffffffffffffffffffffffffffffffffffff16815260200190815260200160002054612ba390919063ffffffff16565b600460003373ffffffffffffffffffffffffffffffffffffffff1673ffffffffffffffffffffffffffffffffffffffff1681526020019081526020016000208190555060003373ffffffffffffffffffffffffffffffffffffffff167fddf252ad1be2c89b69c2b068fc378daa952ba7f163c4a11628f55a4df523b3ef836040518082815260200191505060405180910390a3611bcf81600254612ba390919063ffffffff16565b60028190555050565b6000600460008373ffffffffffffffffffffffffffffffffffffffff1673ffffffffffffffffffffffffffffffffffffffff168152602001908152602001600020549050919050565b600160009054906101000a900473ffffffffffffffffffffffffffffffffffffffff1673ffffffffffffffffffffffffffffffffffffffff163373ffffffffffffffffffffffffffffffffffffffff161415611cda57600160009054906101000a900473ffffffffffffffffffffffffffffffffffffffff166000806101000a81548173ffffffffffffffffffffffffffffffffffffffff021916908373ffffffffffffffffffffffffffffffffffffffff1602179055505b565b600a5481565b60095481565b600360009054906101000a900473ffffffffffffffffffffffffffffffffffffffff1681565b6000809054906101000a900473ffffffffffffffffffffffffffffffffffffffff1673ffffffffffffffffffffffffffffffffffffffff163373ffffffffffffffffffffffffffffffffffffffff16141515611d6957600080fd5b611dbd600854600460003073ffffffffffffffffffffffffffffffffffffffff1673ffffffffffffffffffffffffffffffffffffffff16815260200190815260200160002054612ba390919063ffffffff16565b600460003073ffffffffffffffffffffffffffffffffffffffff1673ffffffffffffffffffffffffffffffffffffffff1681526020019081526020016000208190555060003073ffffffffffffffffffffffffffffffffffffffff167fddf252ad1be2c89b69c2b068fc378daa952ba7f163c4a11628f55a4df523b3ef6008546040518082815260200191505060405180910390a36000600881905550565b6040805190810160405280600381526020017f535658000000000000000000000000000000000000000000000000000000000081525081565b600760009054906101000a900473ffffffffffffffffffffffffffffffffffffffff1673ffffffffffffffffffffffffffffffffffffffff163373ffffffffffffffffffffffffffffffffffffffff16141515611ef157600080fd5b611f658160046000600660019054906101000a900473ffffffffffffffffffffffffffffffffffffffff1673ffffffffffffffffffffffffffffffffffffffff1673ffffffffffffffffffffffffffffffffffffffff16815260200190815260200160002054612ba390919063ffffffff16565b60046000600660019054906101000a900473ffffffffffffffffffffffffffffffffffffffff1673ffffffffffffffffffffffffffffffffffffffff1673ffffffffffffffffffffffffffffffffffffffff1681526020019081526020016000208190555061201c81600460008573ffffffffffffffffffffffffffffffffffffffff1673ffffffffffffffffffffffffffffffffffffffff16815260200190815260200160002054612bbc90919063ffffffff16565b600460008473ffffffffffffffffffffffffffffffffffffffff1673ffffffffffffffffffffffffffffffffffffffff1681526020019081526020016000208190555061207481600854612ba390919063ffffffff16565b6008819055508173ffffffffffffffffffffffffffffffffffffffff16600660019054906101000a900473ffffffffffffffffffffffffffffffffffffffff1673ffffffffffffffffffffffffffffffffffffffff167fddf252ad1be2c89b69c2b068fc378daa952ba7f163c4a11628f55a4df523b3ef836040518082815260200191505060405180910390a35050565b60008273ffffffffffffffffffffffffffffffffffffffff163073ffffffffffffffffffffffffffffffffffffffff16141580156121705750600073ffffffffffffffffffffffffffffffffffffffff168373ffffffffffffffffffffffffffffffffffffffff1614155b151561217b57600080fd5b600660009054906101000a900460ff1615151561219757600080fd5b6121e982600460003373ffffffffffffffffffffffffffffffffffffffff1673ffffffffffffffffffffffffffffffffffffffff16815260200190815260200160002054612ba390919063ffffffff16565b600460003373ffffffffffffffffffffffffffffffffffffffff1673ffffffffffffffffffffffffffffffffffffffff1681526020019081526020016000208190555061227e82600460008673ffffffffffffffffffffffffffffffffffffffff1673ffffffffffffffffffffffffffffffffffffffff16815260200190815260200160002054612bbc90919063ffffffff16565b600460008573ffffffffffffffffffffffffffffffffffffffff1673ffffffffffffffffffffffffffffffffffffffff168152602001908152602001600020819055508273ffffffffffffffffffffffffffffffffffffffff163373ffffffffffffffffffffffffffffffffffffffff167fddf252ad1be2c89b69c2b068fc378daa952ba7f163c4a11628f55a4df523b3ef846040518082815260200191505060405180910390a36001905092915050565b6000806000809054906101000a900473ffffffffffffffffffffffffffffffffffffffff1673ffffffffffffffffffffffffffffffffffffffff163373ffffffffffffffffffffffffffffffffffffffff1614151561238e57600080fd5b60009150600090505b8585905081101561259a5761243284848381811015156123b357fe5b905060200201356004600089898681811015156123cc57fe5b9050602002013573ffffffffffffffffffffffffffffffffffffffff1673ffffffffffffffffffffffffffffffffffffffff1673ffffffffffffffffffffffffffffffffffffffff16815260200190815260200160002054612bbc90919063ffffffff16565b60046000888885818110151561244457fe5b9050602002013573ffffffffffffffffffffffffffffffffffffffff1673ffffffffffffffffffffffffffffffffffffffff1673ffffffffffffffffffffffffffffffffffffffff168152602001908152602001600020819055506124c684848381811015156124b057fe5b9050602002013583612bbc90919063ffffffff16565b915085858281811015156124d657fe5b9050602002013573ffffffffffffffffffffffffffffffffffffffff1673ffffffffffffffffffffffffffffffffffffffff16600660019054906101000a900473ffffffffffffffffffffffffffffffffffffffff1673ffffffffffffffffffffffffffffffffffffffff167fddf252ad1be2c89b69c2b068fc378daa952ba7f163c4a11628f55a4df523b3ef868685818110151561257157fe5b905060200201356040518082815260200191505060405180910390a38080600101915050612397565b6125af82600d54612ba390919063ffffffff16565b600d819055506126298260046000600660019054906101000a900473ffffffffffffffffffffffffffffffffffffffff1673ffffffffffffffffffffffffffffffffffffffff1673ffffffffffffffffffffffffffffffffffffffff16815260200190815260200160002054612ba390919063ffffffff16565b60046000600660019054906101000a900473ffffffffffffffffffffffffffffffffffffffff1673ffffffffffffffffffffffffffffffffffffffff1673ffffffffffffffffffffffffffffffffffffffff16815260200190815260200160002081905550505050505050565b600660009054906101000a900460ff1681565b600c5481565b600160009054906101000a900473ffffffffffffffffffffffffffffffffffffffff1681565b6000600560008473ffffffffffffffffffffffffffffffffffffffff1673ffffffffffffffffffffffffffffffffffffffff16815260200190815260200160002060008373ffffffffffffffffffffffffffffffffffffffff1673ffffffffffffffffffffffffffffffffffffffff16815260200190815260200160002054905092915050565b600b5481565b6000809054906101000a900473ffffffffffffffffffffffffffffffffffffffff1673ffffffffffffffffffffffffffffffffffffffff163373ffffffffffffffffffffffffffffffffffffffff161415156127bd57600080fd5b600073ffffffffffffffffffffffffffffffffffffffff168173ffffffffffffffffffffffffffffffffffffffff16141515156127f957600080fd5b80600160006101000a81548173ffffffffffffffffffffffffffffffffffffffff021916908373ffffffffffffffffffffffffffffffffffffffff16021790555050565b6000806000809054906101000a900473ffffffffffffffffffffffffffffffffffffffff1673ffffffffffffffffffffffffffffffffffffffff163373ffffffffffffffffffffffffffffffffffffffff1614151561289b57600080fd5b60009150600090505b85859050811015612aa75761293f84848381811015156128c057fe5b905060200201356004600089898681811015156128d957fe5b9050602002013573ffffffffffffffffffffffffffffffffffffffff1673ffffffffffffffffffffffffffffffffffffffff1673ffffffffffffffffffffffffffffffffffffffff16815260200190815260200160002054612bbc90919063ffffffff16565b60046000888885818110151561295157fe5b9050602002013573ffffffffffffffffffffffffffffffffffffffff1673ffffffffffffffffffffffffffffffffffffffff1673ffffffffffffffffffffffffffffffffffffffff168152602001908152602001600020819055506129d384848381811015156129bd57fe5b9050602002013583612bbc90919063ffffffff16565b915085858281811015156129e357fe5b9050602002013573ffffffffffffffffffffffffffffffffffffffff1673ffffffffffffffffffffffffffffffffffffffff16600660019054906101000a900473ffffffffffffffffffffffffffffffffffffffff1673ffffffffffffffffffffffffffffffffffffffff167fddf252ad1be2c89b69c2b068fc378daa952ba7f163c4a11628f55a4df523b3ef8686858181101515612a7e57fe5b905060200201356040518082815260200191505060405180910390a380806001019150506128a4565b612abc82600c54612ba390919063ffffffff16565b600c81905550612b368260046000600660019054906101000a900473ffffffffffffffffffffffffffffffffffffffff1673ffffffffffffffffffffffffffffffffffffffff1673ffffffffffffffffffffffffffffffffffffffff16815260200190815260200160002054612ba390919063ffffffff16565b60046000600660019054906101000a900473ffffffffffffffffffffffffffffffffffffffff1673ffffffffffffffffffffffffffffffffffffffff1673ffffffffffffffffffffffffffffffffffffffff16815260200190815260200160002081905550505050505050565b6000828211151515612bb157fe5b818303905092915050565b6000808284019050838110151515612bd057fe5b80915050929150505600a165627a7a7230582044c494ef366a11b7cfb284c4ef387f8c2d8b8e0f3652f2c5a3ec7bddf2b6a1f80029",
  "source": "pragma solidity ^0.4.22;\n\n//standard library for uint\nlibrary SafeMath { \n  function mul(uint256 a, uint256 b) internal pure returns (uint256) {\n    if (a == 0 || b == 0){\n        return 0;\n    }\n    uint256 c = a * b;\n    assert(c / a == b);\n    return c;\n  }\n\n  function sub(uint256 a, uint256 b) internal pure returns (uint256) {\n    assert(b <= a);\n    return a - b;\n  }\n\n  function add(uint256 a, uint256 b) internal pure returns (uint256) {\n    uint256 c = a + b;\n    assert(c >= a);\n    return c;\n  }\n\n  function pow(uint256 a, uint256 b) internal pure returns (uint256){ //power function\n    if (b == 0){\n      return 1;\n    }\n    uint256 c = a**b;\n    assert (c >= a);\n    return c;\n  }\n}\n\n//standard contract to identify owner\ncontract Ownable {\n\n  address public owner;\n\n  address public newOwner;\n\n  modifier onlyOwner() {\n    require(msg.sender == owner);\n    _;\n  }\n\n  function transferOwnership(address _newOwner) public onlyOwner {\n    require(_newOwner != address(0));\n    newOwner = _newOwner;\n  }\n\n  function acceptOwnership() public {\n    if (msg.sender == newOwner) {\n      owner = newOwner;\n    }\n  }\n}\ncontract SHAREToken is Ownable { //ERC - 20 token contract\n  using SafeMath for uint;\n  // Triggered when tokens are transferred.\n  event Transfer(address indexed _from, address indexed _to, uint256 _value);\n\n  // Triggered whenever approve(address _spender, uint256 _value) is called.\n  event Approval(address indexed _owner, address indexed _spender, uint256 _value);\n\n  string public constant symbol = \"SVX\";\n  string public constant name = \"SHARE\";\n  uint8 public constant decimals = 6;\n  uint256 _totalSupply = 200000000 * ((uint)(10) ** (uint)(decimals)); //include decimals;\n\n  // Owner of this contract\n  address public owner;\n\n  // Balances for each account\n  mapping(address => uint256) balances;\n\n  // Owner of account approves the transfer of an amount to another account\n  mapping(address => mapping (address => uint256)) allowed;\n\n  function totalSupply() public view returns (uint256) { //standard ERC-20 function\n    return _totalSupply;\n  }\n\n  function balanceOf(address _address) public view returns (uint256 balance) {//standard ERC-20 function\n    return balances[_address];\n  }\n  \n  bool public locked = true;\n  function changeLockTransfer (bool _request) public onlyOwner {\n    locked = _request;\n  }\n  \n  //standard ERC-20 function\n  function transfer(address _to, uint256 _amount) public returns (bool success) {\n    require(this != _to && _to != address(0));\n    require(!locked);\n    balances[msg.sender] = balances[msg.sender].sub(_amount);\n    balances[_to] = balances[_to].add(_amount);\n    emit Transfer(msg.sender,_to,_amount);\n    return true;\n  }\n\n  //standard ERC-20 function\n  function transferFrom(address _from, address _to, uint256 _amount) public returns(bool success){\n    require(this != _to && _to != address(0));\n    require(!locked);\n    balances[_from] = balances[_from].sub(_amount);\n    allowed[_from][msg.sender] = allowed[_from][msg.sender].sub(_amount);\n    balances[_to] = balances[_to].add(_amount);\n    emit Transfer(_from,_to,_amount);\n    return true;\n  }\n\n  //standard ERC-20 function\n  function approve(address _spender, uint256 _amount)public returns (bool success) { \n    allowed[msg.sender][_spender] = _amount;\n    emit Approval(msg.sender, _spender, _amount);\n    return true;\n  }\n\n  //standard ERC-20 function\n  function allowance(address _owner, address _spender)public constant returns (uint256 remaining) {\n    return allowed[_owner][_spender];\n  }\n\n  address public tokenHolder;\n  \n  constructor() public {\n    owner = 0x4B9b958645122478a98cd5828849850F97c65Bc8;\n    tokenHolder = 0x4B9b958645122478a98cd5828849850F97c65Bc8;\n    balances[tokenHolder] = _totalSupply;\n    emit Transfer(address(this), tokenHolder, _totalSupply);\n  }\n\n  address public crowdsaleContract;\n\n  function setCrowdsaleContract (address _address) public{\n    require(crowdsaleContract == address(0));\n\n    crowdsaleContract = _address;\n  }\n\n  uint public crowdsaleBalance = 120000000 * ((uint)(10) ** (uint)(decimals)); //include decimals;\n  \n  function sendCrowdsaleTokens (address _address, uint _value) public {\n    require(msg.sender == crowdsaleContract);\n\n    balances[tokenHolder] = balances[tokenHolder].sub(_value);\n    balances[_address] = balances[_address].add(_value);\n    \n    crowdsaleBalance = crowdsaleBalance.sub(_value);\n    \n    emit Transfer(tokenHolder,_address,_value);    \n  }\n\n  uint public teamBalance = 20000000 * ((uint)(10) ** (uint)(decimals)); \n  uint public foundersBalance = 40000000 * ((uint)(10) ** (uint)(decimals));\n  uint public platformReferral = 10000000 * ((uint)(10) ** (uint)(decimals));\n  uint public bountyBalance = 6000000 * ((uint)(10) ** (uint)(decimals));\n  uint public advisorsBalance = 4000000 * ((uint)(10) ** (uint)(decimals));\n\n  function sendTeamBalance (address[] _addresses, uint[] _values) external onlyOwner {\n    uint buffer = 0;\n    for(uint i = 0; i < _addresses.length; i++){\n      balances[_addresses[i]] = balances[_addresses[i]].add(_values[i]);\n      buffer = buffer.add(_values[i]);\n      emit Transfer(tokenHolder,_addresses[i],_values[i]);\n    }\n    teamBalance = teamBalance.sub(buffer);\n    balances[tokenHolder] = balances[tokenHolder].sub(buffer);\n  }\n\n  function sendFoundersBalance (address[] _addresses, uint[] _values) external onlyOwner {\n    uint buffer = 0;\n    for(uint i = 0; i < _addresses.length; i++){\n      balances[_addresses[i]] = balances[_addresses[i]].add(_values[i]);\n      buffer = buffer.add(_values[i]);\n      emit Transfer(tokenHolder,_addresses[i],_values[i]);\n    }\n    foundersBalance = foundersBalance.sub(buffer);\n    balances[tokenHolder] = balances[tokenHolder].sub(buffer);\n  }\n\n  function platformReferralBalance (address[] _addresses, uint[] _values) external onlyOwner {\n    uint buffer = 0;\n    for(uint i = 0; i < _addresses.length; i++){\n      balances[_addresses[i]] = balances[_addresses[i]].add(_values[i]);\n      buffer = buffer.add(_values[i]);\n      emit Transfer(tokenHolder,_addresses[i],_values[i]);\n    }\n    platformReferral = platformReferral.sub(buffer);\n    balances[tokenHolder] = balances[tokenHolder].sub(buffer);\n  }\n\n  function sendBountyBalance (address[] _addresses, uint[] _values) external onlyOwner {\n    uint buffer = 0;\n    for(uint i = 0; i < _addresses.length; i++){\n      balances[_addresses[i]] = balances[_addresses[i]].add(_values[i]);\n      buffer = buffer.add(_values[i]);\n      emit Transfer(tokenHolder,_addresses[i],_values[i]);\n    }\n    bountyBalance = bountyBalance.sub(buffer);\n    balances[tokenHolder] = balances[tokenHolder].sub(buffer);\n  }\n\n  function sendAdvisorsBalance (address[] _addresses, uint[] _values) external onlyOwner {\n    uint buffer = 0;\n    for(uint i = 0; i < _addresses.length; i++){\n      balances[_addresses[i]] = balances[_addresses[i]].add(_values[i]);\n      buffer = buffer.add(_values[i]);\n      emit Transfer(tokenHolder,_addresses[i],_values[i]);\n    }\n    advisorsBalance = advisorsBalance.sub(buffer);\n    balances[tokenHolder] = balances[tokenHolder].sub(buffer);\n  }\n\n  function burnTokens (uint _value) external {\n    balances[msg.sender] = balances[msg.sender].sub(_value);\n    emit Transfer(msg.sender, 0, _value);\n    _totalSupply = _totalSupply.sub(_value);\n  }\n\n  function burnUnsoldTokens () public onlyOwner {\n    balances[this] = balances[this].sub(crowdsaleBalance);\n    emit Transfer(address(this), 0, crowdsaleBalance);\n    crowdsaleBalance = 0;\n  }\n  \n  \n}",
  "sourcePath": "/home/romuch/Desktop/SHARE/contracts/ShareTokenAll.sol",
  "compiler": {
    "name": "solc",
    "version": "0.4.22+commit.4cb486ee.Emscripten.clang"
  },
  "schemaVersion": "1.0.1",
  "updatedAt": "2018-05-23T10:08:31.257Z"
}